:04000000020059326F
:01000B0032C2
:0100130032BA
:01001B0032B2
:0300230002192996
:0300B40002002621
:0300260002028053
:2000B7000022E582900021F0900001E0FF74064FFE900022F0900021E0FDBD01099000221F
:2000D70074046EF0800ABD020790002274026EF0200009900022E0FEB5070122900022E033
:2000F700FF900001F08F8202182EAFF0AE83E582900023F0EEA3F0EFA3F0900023E0FDA300
:20011700E0FEA3E0FF74022DFAE43EFB8F048A828B838CF0122FDCFA8D828E838FF0122F8E
:20013700DCFBA3122FDCFC8B00ECF93395E0FBFC900153EAF0E4A3F0E4A3F0E4A3F08882D9
:2001570089838BF0ECC007C006C0051226F0A982AA83ABF0FCD005D006D00719B9FF091A36
:20017700BAFF051BBBFF011C89828A838BF0ECC007C006C005121738D005D006D00774038D
:200197002DFAE43EFB8F048A828B838CF0122FDCFAA3122FDCFB1ABAFF011B8A828B83C040
:2001B70007C006C005121849D005D006D00774052DFDE43EFE8D828E838FF0122FDCFDA382
:2001D700122FDCFE8D828E83121892900000E4F5F00217B3900000E4F09000047407F07415
:2001F70000A3F0E4A3F09000027401F0900003E4F0900001E04401F090000A75F000742641
:2002170012264BA3E412264B9000077432F0E4A3F090000975F000742112264B90000C756F
:20023700F000740A12264BA3E412264BC20812172FD20712172AC20712172A1210F590009B
:2002570000E0FFD2008F821200B9900004E0FDA3E0FEA3E0FF8D828E838FF0120101900043
:2002770002E024FF920802172F1219FBD2997453C0E07430C0E07480C0E01227C11581150B
:200297008115811201EB90001C747BF07434A3F090347B75F08012155A900000E0FFC20195
:2002B7008F82120CA790001EE0FEA3E0FF7D80C006C007C0057465C0E07430C0E07480C083
:2002D700E01227C1E58124FAF58110090280FBC2AC9000A375F0001210FE90001CE0FEA34A
:2002F700E0FF7D808E828F838DF01211DE900183E4F0D2AC90001EE0FEA3E0FF7D80C00634
:20031700C007C0057465C0E07430C0E07480C0E01227C1E58124FAF58180AFAFF0AE83E511
:2003370082900026F0EEA3F0EFA3F09000297473F07430A3F07480A3F090002C747DF0741C
:2003570030A3F07480A3F0900026E0FDA3E0FEA3E0FF74022DFDE43EFE8D828E838FF01235
:200377002FDC600E90002C747AF07430A3F07480A3F0900001E0FF30E00E9000297468F082
:200397007430A3F07480A3F090002CE0C0E0A3E0C0E0A3E0C0E07481C0E07430C0E0748039
:2003B700C0E01227C1E58124FAF581900029E0C0E0A3E0C0E0A3E0C0E07497C0E07430C004
:2003D700E07480C0E01227C1E58124FAF581900003E0FF7E00C007C00674ADC0E07430C0FC
:2003F700E07480C0E01227C1E58124FBF58122AFF0AE83E58290002FF0EEA3F0EFA3F090E2
:20041700002FE0FDA3E0FEA3E0FF74022DFAE43EFB8F048A828B838CF0122FDCFA7C00C080
:2004370007C006C005C002C00474C7C0E07430C0E07480C0E01227C1E58124FBF581D00510
:20045700D006D0078D828E838FF0122FDCFBA3122FDCFCC007C006C005C003C00474DDC07B
:20047700E07430C0E07480C0E01227C1E58124FBF581D005D006D00774032DFAE43EFB8FEC
:20049700048A828B838CF0122FDCFAA3122FDCFBC007C006C005C002C00374F3C0E0743057
:2004B700C0E07480C0E01227C1E58124FBF581D005D006D00774052DFDE43EFE8D828E8397
:2004D7008FF0122FDCFDA3122FDCFEC005C0067409C0E07431C0E07480C0E01227C1E581CD
:2004F70024FBF58122741FC0E07431C0E07480C0E01227C115811581158122AF83E582901B
:200517000032F0EFA3F0900032E0C0E0A3E0C0E07432C0E07431C0E07480C0E01227C1E5BD
:200537008124FBF58122AF83E582900034F0EFA3F0900034E0C0E0A3E0C0E07442C0E0746C
:2005570031C0E07480C0E01227C1E58124FBF5812274FAC0E0E4C0E07450C0E07431C0E0CD
:200577007480C0E01227C1E58124FBF581229000027401F0D20802172F900002E4F0C20870
:2005970002172F74FDC0E0742FC0E07480C0E0746FC0E07431C0E07480C0E01227C1E58158
:2005B70024FAF58190000075F000120332900000E0701E7485C0E07431C0E07480C0E012D2
:2005D70027C115811581158190000775F000020406749FC0E07431C0E07480C0E01227C1CC
:2005F70015811581158190000E75F00012040674B7C0E07431C0E07480C0E01227C11581CF
:200617001581158190001575F0000204061213ECAE82AF83BEFE06BFFF030204FCEF30E783
:200637000122C3EE9401EF6480948050078E828F83020512C374FF9E748F8FF063F0809503
:20065700F050078E828F8302053D900004E0F509A3E0F50AA3E0F50B74022509F8E4350AA0
:20067700F9AA0B888289838AF0122FDCF5088E00EFF93395E0FAFD900153E508F0E4A3F0BE
:20069700E4A3F0E4A3F0888289838AF0EDC007C0061226F0AA82AB83ACF0FDD006D00790F3
:2006B7000036EAF0EBA3F0ECA3F0EDA3F0C3EA94FAEB9400EC9400ED940050030205688594
:2006D7000982850A83850BF0EE12264BA3EF12264BC20812172F900000E0FFC2008F8212EA
:2006F70000B9900036E0FCA3E0FDA3E0FEA3E0FF1CBCFF091DBDFF051EBEFF011F8C828DB1
:20071700838EF0EF121738900002E024FF920802172F1213ECAE82AF83BEFE06BFFF030202
:2007370004FCEF30E70122C3EE9401EF6480948050078E828F83020512C3743F9EE46480DE
:200757008FF063F08095F050078E828F8302053D900004E0FCA3E0FDA3E0FF8C828D838FCF
:20077700F0122FDCFAA3122FDCFB8A00EBF93395E0FAFB900153EEF0E4A3F0E4A3F0E4A35E
:20079700F0888289838AF0EBC007C006C005C0041226F0A882A983AAF0FBD004D005D0062F
:2007B700D00790003AE8F0E9A3F0EAA3F0EBA3F0C3E894FAE99400EA9400EB94005003022A
:2007D700056874022CFCE43DFD8C828D838FF0EE12264BC20812172F900000E0FFC2008FE9
:2007F700821200B990003AE0FCA3E0FDA3E0FEA3E0FF1CBCFF091DBDFF051EBEFF011F8C27
:20081700828D838EF0EF121738900002E024FF920802172F1213ECAE82AF8390003EEEF0CB
:20083700EFA3F0EF33E433FD7049C3EE9401EF6480948050078E828F83020512C374FF9E9D
:20085700748F8FF063F08095F050078E828F8302053D900004E0FAA3E0FBA3E0FC74032ADE
:20087700FAE43BFB8A828B838CF0EE12264BA3EF12264BED6030BEFF04BFFF01229000047E
:20089700E0FDA3E0FEA3E0FF74032DFDE43EFE8D828E838FF0122FDCFDA3122FDCFE900099
:2008B7003EEDF0EEA3F0C20812172F900001E04401F0900000E0FFD2008F821200B9900010
:2008D7003EE0FEA3E0FF1EBEFF011F8E828F83121849900002E024FF920802172F900001CB
:2008F700E054FEF0C20812172F900001E0F58212182E900002E024FF920802172F90004016
:2009170075F000121443AE82AF83BEFE06BFFF030204FCEF30E70122C20812172F90000030
:20093700E0FFC2008F821200B9900040E0FCA3E0FDA3E0FEA3E08C828D838EF01217B390EB
:200957000002E024FF920802172F1213ECAE82AF83C3EE9401EF6480948050078E828F8380
:20097700020512C374FF9EE464808FF063F08095F050078E828F8302053D900004E0FBA305
:20099700E0FCA3E0FD74052BFBE43CFC8B828C838DF0EE12264BA3EF12264B900000E0FF9B
:2009B700C2008F821200B9900004E0FDA3E0FEA3E0FF74052DFDE43EFE8D828E838FF0129A
:2009D7002FDCFDA3122FDCFE8D828E83021892E582900044F0FFBF01028005BF02108007A5
:2009F70090000E75F0002290001575F0002290000775F000221213ECAE82E583FF20E710B2
:200A1700C374029EE464808FF063F08095F0501674CFC0E07431C0E07480C0E01227C11518
:200A370081158115812275820DC007C006121917D006D007900000E0FFEEB5070122EE70B6
:200A570070C006740CC0E07432C0E07480C0E01227C11581158115817429C0E07432C0E010
:200A77007480C0E01227C1158115811581900140740EF07400A3F0E4A3F09001437407F00F
:200A9700E4A3F090000775F000122488C20812172FD2007582001200B990000775F000124A
:200AB7000101900002E024FF920812172FD006806FEF706CC006745CC0E07432C0E0748096
:200AD700C0E01227C11581158115817477C0E07432C0E07480C0E01227C115811581158182
:200AF7009001407407F07400A3F0E4A3F09001437407F0E4A3F090000E75F000122488901E
:200B170001407407F07400A3F0E4A3F09001437407F0E4A3F090001575F000122488D00640
:200B3700900000EEF08E821209E6AD82AE83AFF0900004EDF0EEA3F0EFA3F0900000E0FF3D
:200B5700601B7E00C007C00674A2C0E07432C0E07480C0E01227C1E58124FBF581900000E3
:200B7700E0FFC2018F82020CA71213ECAE82AF83BEFE06BFFF030204FCEF30E70122C3749E
:200B9700079EE464808FF063F08095F050078E828F8302053D8EF005F07E017F008006EE58
:200BB7002EFEEF33FFD5F0F7900003E0FFEE5F601674CDC0E07432C0E07480C0E01227C12B
:200BD70015811581158122EF4206900003EEF08E820218DB900003E4F0900003E0F582021A
:200BF70018DB1213ECAE82AF83BEFE06BFFF030204FCEF30E70122C374079EE464808FF0A7
:200C170063F08095F050078E828F8302053D8EF005F07E017F008006EE2EFEEF33FFD5F0B1
:200C3700F7900003E0FFEE5F701674D9C0E07432C0E07480C0E01227C115811581158122BC
:200C5700EEF45207900003EFF08F820218DB900003E0FF7E00C007C00674E6C0E07432C0ED
:200C7700E07480C0E01227C1E58124FBF581221218F7AF827E00C007C00674FEC0E07432BD
:200C9700C0E07480C0E01227C1E58124FBF58122E582900045F030010B90001E7441F074C3
:200CB70030A3F022900045E0FFBF01028005BF0218800B90001E741DF07430A3F0229000C1
:200CD7001E742FF07430A3F02290001E7414F07430A3F02290001C744CF07435A3F0D20109
:200CF700758200120CA7020D1990001C747BF07434A3F0900000E0FFC2018F82120CA70229
:200D17000D1990001CE0FEA3E0FF7D808E828F838DF002155AE582900049F07E4A7F007D89
:200D370000900049E0900107F09001087407F08E828F838DF0121E56AF82900049EFF02029
:200D5700022E900046E0FCA3E0FDA3E0FE900140744AF07400A3F0E4A3F09001437407F05D
:200D7700E4A3F08C828D838EF0C007122488D00790004A75F000C007120406D0078F8222C1
:200D9700758200121F25AF82902FFCE493FEEFB5060280192004157417C0E07433C0E0742A
:200DB70080C0E01227C115811581158122758201121F25AF8274C05FFEBE4002802EBE8022
:200DD70015744AC0E07433C0E07480C0E01227C1158115811581748BC0E07433C0E0748018
:200DF700C0E01227C115811581158122EF13920530040420052B223005067ED47F33800458
:200E17007EDC7F337D80C006C007C00574BAC0E07433C0E07480C0E01227C1E58124FAF544
:200E3700817E517F007D009001077410F09001087404F08E828F838DF0121E56AF822003C9
:200E5700239001407451F07400A3F0E4A3F09001437404F0E4A3F090000075F000C00712D3
:200E77002488D007C00774E5C0E07433C0E07480C0E01227C115811581158190005175F03B
:200E970000120332D007900051E07031C0077485C0E07431C0E07480C0E01227C1158115DD
:200EB700811581D0079000467407F07400A3F0E4A3F0A20392028F82120D2C8060C00774BE
:200ED7009FC0E07431C0E07480C0E01227C1158115811581D007900046740EF07400A3F001
:200EF700E4A3F0A20392028F82120D2CAF82C00774B7C0E07431C0E07480C0E01227C11524
:200F17008115811581D0079000467415F07400A3F0E4A3F0A20392028F82120D2C300301A0
:200F370022C20812172F900000E07013D2007582001200B990000775F0001201018022D24B
:200F5700007582011200B990000E75F000120101D2007582021200B990001575F0001201ED
:200F77000174F7C0E07433C0E07480C0E01227C1158115811581900000E0F5821209E6AD22
:200F970082AE83AFF0900004EDF0EEA3F0EFA3F022741AC0E07434C0E07480C0E01227C14E
:200FB700158115811581D203C204020D9775820D121917C203C204020D979001137480F018
:200FD700758201121F52758200121F25AF82902FFCE493FEEFB50602800B900113EEF075A3
:200FF7008200121F527E007F0090010CEEF0EFA3F0E4A3F090010F7404F0758210121EC95C
:20101700AF82900000E0701C7D077E0090010CEDF0EEA3F0E4A3F090010F7407F08F8212EA
:201037001EC980367D0E7E0090010CEDF0EEA3F0E4A3F090010F7407F08F82121EC9AF823B
:201057007D157E0090010CEDF0EEA3F0E4A3F090010F7407F08F82121EC99001137440F09A
:20107700758201021F5275820D121917758200121F25AF82902FFCE493FEEFB50602802BA3
:201097007417C0E07433C0E07480C0E01227C11581158115817441C0E07434C0E07480C026
:2010B700E01227C115811581158122758201121F25AF8230060990005574014FF0800790ED
:2010D700005574FE5FF0900055E0900113F0758201021F52D20602107DC20602107DC2039C
:0510F700D204020D9778
:202FFC002053796E636F436D642D5633322D63616E646964617465000D53796E636F3E204C
:20301C00000D53796E636F205B62616E6B20315D3E20000D53796E636F205B62616E6B2008
:20303C00325D3E20000D53796E636F205B454550524F4D5D3E20000D5374617274696E6717
:20305C002075702E2E2E0D0D002573004672656552756E5F4456005254535F4456004F4ED4
:20307C00004F46460020204D616E63686F5F456E61626C65203D2025730D00202044565FC2
:20309C004D6F6465202020202020203D2025730D00202041434443555F6F6E6F6666202056
:2030BC00203D203078253032780D0020204E756D5F526F77202020202020203D2025640DE9
:2030DC00002020526F775F4C656E202020202020203D2025640D0020204652756E5F436F3F
:2030FC00756E74202020203D2025640D002020436C6F636B5F64697669646572203D2025D6
:20311C00640D0009415247554D454E542052455155495245440009544F4F20534D414C4CA1
:20313C0020222564220009544F4F2042494720222564220009524F574C454E202A204E55BF
:20315C004D524F57204D555354204245203E3D202564000D2025730D2053797374656D2023
:20317C00636F6E6669673A0D0020416C6C2D62616E6B20636F6E66696775726174696F6EDC
:20319C003A0D002042616E6B203120636F6E66696775726174696F6E3A0D002042616E6B64
:2031BC00203220636F6E66696775726174696F6E3A0D000942616E6B20617267756D656E2E
:2031DC0074206D7573742062652031206F7220322C206F72203020666F7220756E62616ED3
:2031FC006B6564206F7065726174696F6E2E0D00537769746368696E6720746F20756E623B
:20321C00616E6B6564206D6F64652E0D005573696E672062616E6B3120636F6E6669677591
:20323C00726174696F6E20666F7220756E62616E6B6564206F7065726174696F6E2E0D00EA
:20325C00537769746368696E6720746F2062616E6B6564206D6F64652E0D00436F70796916
:20327C006E6720636F6E66696775726174696F6E20746F2062616E6B3120616E642062619F
:20329C006E6B322E0D0042616E6B61626C6520636F6D6D616E64732077696C6C206E6F77FE
:2032BC0020676F20746F2062616E6B2025692E0D0009414C5245414459204F4E0009414CF6
:2032DC005245414459204F4646000D0941434443555F6F6E6F6666093D2030582530327888
:2032FC000D000D0941434443555F537461747573203D203058253032780D00454550524FC0
:20331C004D2064617461206E6F7420736176656420776974682074686973207665727369E9
:20333C006F6E206F662053796E636F2E0D00454550524F4D2064617461206D61726B656422
:20335C0020617320696E636F6E73697374656E742028696E74657272757074656420647525
:20337C0072696E672077726974653F292E0D00454550524F4D207374617475732062797498
:20339C006520696E76616C69643B207265667573696E6720746F206C6F61642E0D00204584
:2033BC004550524F4D206C6F6164206F6E20626F6F74203D20257300656E61626C656400FD
:2033DC0064697361626C6564000D2053797374656D20636F6E6669673A0D00436F6E66691B
:2033FC006775726174696F6E206C6F616465642066726F6D20454550524F4D2E0D000D4576
:20341C004550524F4D20636F6E7461696E7320736176656420636F6E6669677572617469A0
:20343C006F6E3A0D0057726974652076616C696420646174612066697273742C2074686582
:19345C006E206D616E6970756C61746520626F6F74206D6F64652E0D00C5
:2010FC000022AFF0AE83E58290007DF0EEA3F0EFA3F090007DE0FDA3E0FEA3E0FF90012CD1
:20111C0074A4F07435A3F07480A3F08D828E838FF0122290AD82AE83AFF0900056EDF0EED5
:20113C00A3F0EFA3F07E017F00900151EEF0EFA3F0900003C007C0061226D0AC82AD83ECCC
:20115C002456FCED3400FD90012C74A4F07435A3F07480A3F090000075F000C005C00412C7
:20117C002290A982AA83ABF0D004D005D006D0078C828D83E9F0EAA3F0EBA3F0E94A6010C3
:20119C000EBE00010FC3EE940BEF648094804099900151EEF0EFA3F09000031226D0AE823A
:2011BC00AF83EE2456F582EF3400F583E4F0E4A3F0E4A3F090007A7456F07400A3F0E4A353
:2011DC00F022AFF0AE83E582900080F0EEA3F0EFA3F0900080E0FDA3E0FEA3E0FFC007C030
:2011FC0006C0051213ADAA82AB83ACF0D005D006D007EA4B700122900083E4F0780079001E
:20121C00900151E8F0E9A3F090000BC007C006C005C004C003C002C001C0001226D08582B6
:20123C000C85830DD000D001D002D003D004D005D006D007E50C2DF50EE50D3EF50F8F10E1
:20125C00850E82850F838510F0122FDCF511A3122FDCF512A3122FDCF513C011C012C01399
:20127C0090000075F00012002B1581158115817003021387C005C006C007851182851283CB
:20129C008513F0C007C006C005C004C003C002C001C000122FC4858211858312D000D001B6
:2012BC00D002D003D004D005D006D007850E82850F838510F0122FDCFDA3122FDCFEA312D9
:2012DC002FDCFF900138EDF0EEA3F0EFA3F090013BE511F0E512A3F08A828B838CF0C007A6
:2012FC00C006C005C004C003C002C001C0001223D7E5828583F0D000D001D002D003D004F8
:20131C00D005D006D007D007D006D00545F07053C002C003C0049000837401F0E50C2DFADC
:20133C00E50D3EFB8F0474032AFAE43BFB8A828B838CF0122FDCFAA3122FDCFBC007C00629
:20135C00C005C004C003C0028A828B83120029D002D003D004D005D006D007D004D003D09C
:20137C0002800808B800010902121C900083E0F960030211F9C002C003C00474A8C0E074F9
:20139C0035C0E07480C0E01227C1E58124FAF5812290007AE0FDA3E0FEA3E0FF8D828E83A8
:2013BC008FF0122FDCFAA3122FDCFBA3122FDCFCEA4B601590007A74032DF0E43EA3F0EF18
:2013DC00A3F08A828B838CF02290000075F000221213ADAD82AE83AFF0ED4E700490FFFE82
:2013FC00228D828E838FF0122FDCF582C007C006C0051224FCE582D005D006D007701FC0C0
:20141C0005C006C00774A8C0E07435C0E07480C0E01227C1E58124FAF58190FFFF228D82D2
:20143C008E838FF0022515AFF0AE83E582900084F0EEA3F0EFA3F01213ADAD82AE83AFF0B5
:20145C00ED4E700490FFFE228D828E838FF0122FDCF582C007C006C0051224FCE582D0051F
:20147C00D006D007701FC005C006C00774A8C0E07435C0E07480C0E01227C1E58124FAF5B6
:20149C008190FFFF22900084E0FAA3E0FBA3E0FC9000FA7487F07400A3F0E4A3F09000FD94
:2014BC00740AF0E4A3F08D828E838FF0C004C003C002121ACAA982AD83AEF0FFD002D003B0
:2014DC00D0048A828B838CF0E912264BA3ED12264BA3EE12264BA3EF12264B90000122AF7C
:2014FC00F0AE83E58290008AF0EEA3F0EFA3F090008AE0FDA3E0FEA3E0FF7C008D828E83A5
:20151C008FF0122FDCFB60280DBD00010E90008AEDF0EEA3F0EFA3F08B82C007C006C0055E
:20153C00C004121917D004D005D006D0070C80CC90008AEDF0EEA3F0EFA3F08C8222AFF012
:20155C00AE83E58290008DF0EEA3F0EFA3F090008DE0FDA3E0FEA3E0FF7B007C00900151F1
:20157C00EBF0ECA3F090000BC007C006C005C004C0031226D0A982AA83D003D004D005D0D5
:20159C0006D007E92DF514EA3EF5158F16C003C0048514828515838516F0122FDCF8A31248
:2015BC002FDCFBA3122FDCFCE4C0E0E4C0E0E4C0E088828B838CF012002B1581158115812E
:2015DC007005D004D00322D004D003C003C0049035B475F080C007C006C005C004C003C08C
:2015FC0002C0011214FBD001D002D003D0048514828515838516F0122FDCF8A3122FDCFB0E
:20161C00A3122FDCFC88828B838CF0C003C002C0011214FBAC82D001D002D003D005D006A8
:20163C00D0077410C39CFCE92DF9EA3EFA8F03740529F9E43AFA89828A838BF0122FDCF9B9
:20165C00A3122FDCFAA3122FDCFB89828A838BF0C007C006C005C0041214FBAB82D004D05E
:20167C0005D006D007ECC39BF514D004D003C3E464808514F063F08095F05022758209C004
:20169C0007C006C005C004C003121917D003D004D005D006D007E51424F8F51480D09001AB
:2016BC0051EBF0ECA3F090000BC007C006C005C004C0031226D0A982AA83D003D004D00513
:2016DC00D006D007E92DF9EA3EF88F02740829F9E438F8898288838AF0122FDCF9A3122F45
:2016FC00DCF8A3122FDCFA898288838AF0C007C006C005C004C0031214FBD003D004D0053A
:0C171C00D006D0070BBB00010C021579B1
:20347500206E00202000B83580190D783480BA3580CB35809A05783480CD3580DF358024B6
:2034950006753480E23580FC35802907753480FF3580183680F4087834801B3680283680EE
:2034B5002B087534802B36804A368014097534804D368077368061097534807B3680D13679
:2034D500809005783480D43680EB36808505783480EE3680FE3680EB0B7834800237801270
:2034F5003780F90B753480163780323780800B753480363780523780650C783480563780C9
:20351500703780860C7834807337808437800C0A753480893780A73780EB0C783480AE3767
:2035350080CD3780EB01783480D037800000000000000000000000B83580190D783480BA5A
:203555003580E63780000D783480EB3780FF3780A80F783480043880263880C40F783480F7
:203575002B38804B3880D10F783480503880763880EB10783480823880B43880F010783495
:2035950080C138800000000000000000000000200A0D0009574841543F2022257322000D61
:2035B500092000680068656C702C2074686973207374756666003F00676574204D616E6352
:2035D500686F2053746174757300726C0073657420526F775F4C656E096E203D20312074A2
:2035F5006F2034303935006E7200736574204E756D5F526F7773096E203D203120746F2087
:20361500363300727400736574205254535F4D6F6465006672007365742046726565527570
:203635006E204D6F6465096E203D203120746F203430393500666E00736574204672616D82
:20365500652053657175656E6365204E756D626572096E203D203020746F20325E33322DA5
:203675003100636B6400736574207468652064697669736F7220666F722074686520616458
:203695006A75737461626C6520636C6F636B206F7574707574202835304D487A2F636B64A1
:2036B50029096E203D203120746F20323535202864656661756C743D31302900737400739A
:2036D500746F702C2064697361626C65204D616E63686F757400676F00656E61626C6520A6
:2036F5004D616E63686F757400647061007077722064697361626C6520616C6C0064707552
:20371500007077722064697361626C6520756E6974096E203D203020746F2037006570759F
:203735000070777220656E61626C6520756E697420096E203D203020746F203700706F66D1
:20375500006765742041434443555F6F6E6F666620636E746C2062797465007073006765C9
:2037750074204143444355207374617475730062616E6B004368616E676520746172676567
:20379500742062616E6B20666F7220706172616D7300656570726F6D00456E7465722045EE
:2037B5004550524F4D206D616E6970756C6174696F6E206D6F6465007265005265736574A1
:2037D50020616C6C20746F2064656661756C747300657869740072657475726E20746F2083
:2037F5006D61696E206D656E750064756D70005072696E742063757272656E7420636F6EF4
:2038150074656E7473206F6620454550524F4D2E006C6F6164004C6F616420636F6E66690B
:203835006775726174696F6E2066726F6D20454550524F4D2E0073617665005361766520C2
:2038550063757272656E7420636F6E66696775726174696F6E20746F20454550524F4D2E9F
:2038750000656E61626C655F626F6F74005365742073797374656D20746F206C6F616420E5
:20389500454550524F4D20706172616D6574657273206F6E2073746172742D75702E006408
:2038B500697361626C655F626F6F74005365742073797374656D20746F204E4F54206C6F70
:2038D500616420454550524F4D20706172616D6574657273206F6E2073746172742D757075
:0238F5002E00A3
:201728000022A207929022300803C29122D29122AF82AE83ADF0FC900094EFF0EEA3F0EDF1
:20174800A3F0ECA3F0900094E0FCA3E0FDA3E0FEA3E0FF900090ECF0EDA3F0EEA3F0EFA35D
:20176800F075A010900090E0F58000C2B6D2B675A011900091E0F58000C2B6D2B675A01214
:20178800900092E0F58000C2B6D2B675A013900093E0F58000C2B6D2B675A001758001001E
:2017A800C2B6D2B675A0FF7580FF22AF82AE83ADF0FC900098EFF0EEA3F0EDA3F0ECA3F075
:2017C800900098E0FCA3E0FDA3E0FEA3E0FF900090ECF0EDA3F0EEA3F0EFA3F075A0109046
:2017E8000090E0F58000C2B6D2B675A011900091E0F58000C2B6D2B675A012900092E0F542
:201808008000C2B6D2B675A013900093E0F58000C2B6D2B675A00175800400C2B6D2B6751C
:20182800A0FF7580FF22E58290009CF075A00290009CE0F58000C2B6D2B675A0FF7580FFC8
:2018480022AF83E58290009DF0EFA3F090009DE0FEA3E0FF900090EEF0EFA3F075A0109064
:201868000090E0F58000C2B6D2B675A011900091E0F58000C2B6D2B675A00175800200C210
:20188800B6D2B675A0FF7580FF22AF83E58290009FF0EFA3F090009FE0FEA3E0FF900090EF
:2018A800EEF0EFA3F075A010900090E0F58000C2B6D2B675A011900091E0F58000C2B6D240
:2018C800B675A00175800500C2B6D2B675A0FF7580FF22E5829000A1F075A0209000A1E042
:2018E800F5800000C2B6D2B675A0FF7580FF2275A021C2B7000000009000A2E580F0D2B782
:0D19080075A0FF7580FF9000A2E0F582221F
:0200B200C20981
:201915000022E5829000F5F010990280FB9000F5E0F59922C023C0E0C0F0C082C083C007FA
:20193500C006C005C004C003C002C001C000C0D075D0001098030219DEAF99900182EFF08A
:201955008F8212275CE582601FC299900182E0FF8F99900183E0FE90018304F0EE24A3F5CD
:2019750082E43400F583EFF0900183E0FFC3648094D14006EF14900183F0900182E0FFBF64
:20199500082E900183E0FEC3E464808EF063F08095F0501CC2998F99EE24A3F582E4340076
:2019B500F583E4F0900183E0FE14900183F08019BF0D16900183E0FF24A3F582E43400F503
:2019D50083E4F0900183F0D209D0D0D000D001D002D003D004D005D006D007D083D082D00B
:2019F500F0D0E0D02332759850539BEC439B0E438780759A64758F7FD2ACD2AF439B10D2EB
:091A150099900183E4F0C209225A
:023960007200F3
:201A1E00E5829000F6F0FFE4BF200104F58222E5829000F7F0FFC3648094B0B3E433FE607B
:201A3E0010C374B98FF063F08095F0B3E433FF70047F0080027F018F8222E5829000F8F0E1
:201A5E00FFC3648094E1B3E433FE6010C374FA8FF063F08095F0B3E433FE7020C3EF64801F
:201A7E0094C1B3E433FE6010C374DA8FF063F08095F0B3E433FF70047F0080027F018F8204
:201A9E0022E5829000F9F0FFC3648094C1B3E433FE6010C374DA8FF063F08095F0B3E43341
:201ABE00FF70047F0080027F018F8222AFF0AE83E5829000FFF0EEA3F0EFA3F09000FFE0B9
:201ADE00F538A3E0F539A3E0F53AE4F52EF52FA838A939AA3A888289838AF0122FDCFCA33B
:201AFE00A882A983ECF5283395E0F529AC288C82C002C001C000121A1EE582D000D001D05C
:201B1E000270D2900102E8F0E9A3F0EAA3F0742DB52806E4B5290280028028752E01752F45
:201B3E0000888289838AF0122FDCFC900102740128F0E439A3F0EAA3F0ECF5283395E0F5EB
:201B5E0029802D742BB52806E4B5290280028020888289838AF0122FDCFC90010274012850
:201B7E00F0E439A3F0EAA3F0ECF5283395E0F5299000FDE0FBA3E0FC4B6006BB105EBC00DE
:201B9E005B7430B52806E4B529028002804E900102E0FAA3E0FBA3E0FC8A828B838CF0121F
:201BBE002FDCF9B978028003B9583174012AF8E43BF98C07888289838FF0122FDCF888286F
:201BDE003395E0F52990010274022AF0E43BA3F0ECA3F09000FD7410F0E4A3F09000FDE0E8
:201BFE00FBA3E0FC4B701B7430B52806E4B52902800280047C0880027C0A9000FDECF0E44D
:201C1E00A3F09000FDE0FBA3E0FC8B34F5353395E0F536F537900120E534F0E535A3F0E5F8
:201C3E0036A3F0E537A3F090FFFF74FFF5F0C004C00312218285822A85832B85F02CF52DC5
:201C5E00900115E534F0E535A3F0E536A3F0E537A3F090FFFF74FFF5F0122041AA82AD83F8
:201C7E00AEF0FFD003D0048A328D33E4F524F525F526F527F530F531900102E0F53BA3E0C7
:201C9E00F53CA3E0F53D85283E853E82C004C003121A2DE582D003D004600EE52824D0F5BE
:201CBE0028E52934FFF529803E853E82C004C003121A58E582D003D0047003021DD6853E38
:201CDE0082C004C003121A9FE582D003D0046005753E378003753E57AA3E7D00E528C39A59
:201CFE00F528E5299DF529C3E5289BE52964808CF063F08095F04003021DD6E53120E73A20
:201D1E00C3E52A9524E52B9525E52C9526E52D95274027E52AB5242AE52BB52525E52CB568
:201D3E002620E52DB5271BC3E5329528E53364808529F063F08095F050087530FF7531FF0C
:201D5E008057753001753100900153E534F0E535A3F0E536A3F0E537A3F0852482852583F3
:201D7E008526F0E527C004C0031226F085822485832585F026F527D003D004AA28E529FD5C
:201D9E003395E0FEFFEA2524F524ED3525F525EE3526F526EF3527F527853B82853C8385FD
:201DBE003DF0122FDCFFA385823B85833CEFF5283395E0F529021CA4E53130E71574FFF555
:201DDE0024F525F526F52790011E7422F0E4A3F0801BE52E452F6015C3E49524F524E4953B
:201DFE0025F525E49526F526E49527F5279000FAE0FDA3E0FEA3E0FFED4E602EE530453152
:201E1E00600EE53B24FFFAE53C34FFFBAC3D8006AA38AB39AC3A8D828E838FF0EA12264B83
:161E3E00A3EB12264BA3EC12264B8524828525838526F0E527224A
:201E54000022AFF0AE83E582900109F0EEA3F0EFA3F0900107E0FF900109E0FCA3E0FDA378
:201E7400E0FE900108E0FB8B021BEA603A8F020F8A82C007C006C005C004C003121F25AA4B
:201E940082D003D004D005D006D0078C828D838EF0EA12264BA3AC82AD83900109ECF0ED16
:201EB400A3F0EEA3F080C0900109ECF0EDA3F0EEA3F08F8222E582900110F0FF90010CE09C
:201ED400FCA3E0FDA3E0FE90010FE0FB8B021BEA60378F020F900110EFF08C828D838EF091
:201EF400122FDCF9A3AC82AD83900113E9F08A82C007C006C005C004C003121F52D003D02F
:201F140004D005D006D00780C3900110EFF08F8222E582900111F0900112E58EF090011190
:201F3400E0900105F09001067408F0438E20121FA7900112E0F58E900106E0F58222E582DE
:201F5400900114F0900105F0900113E0900106F0121FC87E007F008E048F050EBE00010F4F
:201F74007B007A00C3EC9460ED94EAEB9400EA648094805007E5D220E0DDD32274F7C0E0FE
:201F94007438C0E07480C0E01227C1158115811581C322C083C082C0E0900105E075D202C8
:201FB400F582E4F583E075D200900106F0D0E0D082D08322C083C082C0E0C0F0900106E0C9
:201FD400F5F0900105E075D202F582E4F583E5F0F075D25275D2A275D200D0F0D0E0D08226
:201FF400D083221213ECAE82740F5EFFEEB50702800B9001137474F08F82021F528F82C02F
:2020140007121F25AE82D007EE3395E0FD7C00C006C005C007C0047445C0E07439C0E07409
:0D20340080C0E01227C1E58124F9F581226A
:2038F7005761726E696E67212054696D65642D6F75742077616974696E6720666F72204543
:20391700454255535920746F2064726F702E20454550524F4D207772697465206D61792048
:1E39370068617665206661696C65642E0D00202052656164202578203D2025780D006E
:20204100AF82AE83ADF0FC900119EFF0EEA3F0EDA3F0ECA3F090011DE4F0900119E0FCA3D0
:20206100E0FDA3E0FEA3E0FF7B00900115E0F53FA3E0F540A3E0F541A3E0F542235401FAAD
:202081007074C003E53F253FF8E54033F9E54133FAE54233FB900115E8F0E9A3F0EAA3F0A8
:2020A100EBA3F0900115E0F53FA3E0F540A3E0F541A3E0F542C3EC953FED9540EE9541EFC4
:2020C1009542D0035027E542C313F542E54113F541E54013F540E53F13F53F900115F0E5E8
:2020E10040A3F0E541A3F0E542A3F080090B90011DEBF002206B90011DE0FF900119E0FBDD
:20210100A3E0FCA3E0FDA3E0FE900115E0F53FA3E0F540A3E0F541A3E0F542C3EB953FECEB
:202121009540ED9541EE95424017900119EBC3953FF0EC9540A3F0ED9541A3F0EE9542A3BC
:20214100F0900115E0FBA3E0FCA3E0FDA3E0C313FEED13FDEC13FCEB13FB900115F0ECA3A1
:20216100F0EDA3F0EEA3F08F061FEE708E900119E0FCA3E0FDA3E0FEA3E08C828D838EF027
:01218100223B
:20218200AF82AE83ADF0FC900124EFF0EEA3F0EDA3F0ECA3F0900128E4F0E4A3F0E4A3F0B3
:2021A200E4A3F0900120E0FCA3E0FDA3E0FEA3E0FF753F20900124E0F8A3E0F9A3E0FAA399
:2021C200E0FB33920AE828F8E933F9EA33FAEB33FB900124E8F0E9A3F0EAA3F0EBA3F09072
:2021E2000128E0F8A3E0F9A3E0FAA3E0FBE828F8E933F9EA33FAEB33FB900128E8F0E9A3FB
:20220200F0EAA3F0EBA3F0300A1E900128E0F8A3E0F9A3E0FAA3E0FB900128740148F0E922
:20222200A3F0EAA3F0EBA3F0900128E0F8A3E0F9A3E0FAA3E0FBC3E89CE99DEA9EEB9F40E7
:2022420031900128E8C39CF0E99DA3F0EA9EA3F0EB9FA3F0900124E0F8A3E0F9A3E0FAA3E1
:20226200E0FB900124740148F0E9A3F0EAA3F0EBA3F0D53F0280030221B6900124E0FCA302
:0E228200E0FDA3E0FEA3E08C828D838EF022AF
:20229000AFF0AE83E58290012FF0EEA3F0EFA3F090012FE0FDA3E0FEA3E0FFED4E600B906E
:2022B0000132EDF0EEA3F0EFA3F0900132E0FDA3E0FEA3E0FFED4E7006900000F5F0229080
:2022D0000132E0FDA3E0FEA3E0FF8D828E838FF0122FDCFF603190012CE0FCA3E0FDA3E0F3
:2022F000FE90014DEFF08C828D838EF0122666AD82AE83AFF0ED4E600E900132E02401F079
:20231000A3E03400F080B8900132E0FDA3E0FEA3E0FF900135EDF0EEA3F0EFA3F0900132C2
:20233000E0FDA3E0FEA3E0FF8D828E838FF0122FDCFF606490012CE0FCA3E0FDA3E0FE9004
:20235000014DEFF08C828D838EF0122666AD82AE83AFF0ED4E6033900132E0FDA3E0FEA375
:20237000E0FF8D828E838FF0E412264B900132E02401F0A3E03400F0900135E0FDA3E0FEE5
:20239000A3E0FF8D828E838FF022900132E02401F0A3E03400F08085900132E4F0E4A3F078
:2023B000E4A3F0900135E0FDA3E0FEA3E0FF8D828E838FF0122FDC60078D828E838FF0220C
:0723D00090000075F00022EF
:2023D700AFF0AE83E58290013DF0EEA3F0EFA3F090013BE0FEA3E0FF4E70049000002290BE
:2023F700013DE0FBA3E0FCA3E0FD900138E0F8A3E0F9A3E0FA1EBEFF011FEE4F60418B822E
:202417008C838DF0122FDCF53F6034C006C007888289838AF0122FDCFFB53F028006D007A8
:20243700D006801BD007D0060BBB00010C90013DEBF0ECA3F0EDA3F008B800B90980B690A4
:20245700013DEBF0ECA3F0EDA3F08B828C838DF0122FDCFB3395E0FF888289838AF0122F24
:11247700DCF83395E0FEEBC398FBEF9E8B82F5832265
:06008800E4787FF6D8FDCC
:20248800AFF0AE83E582900145F0EEA3F0EFA3F0900145E0F53FA3E0F540A3E0F541AA3FF0
:2024A800AB40AC41900140E0F8A3E0F9A3E0FF900143E0F542A3E0F543AD42AE4315427444
:2024C800FFB542021543ED4E6020888289838FF0122FDCFEA3A882A9838A828B838CF0EEBC
:1424E80012264BA3AA82AB8380CF853F828540838541F022AB
:1924FC00E582900148F0FFBF30004009EF24C64004758201227582002210
:20251500AFF0AE83E582900149F0EEA3F0EFA3F07E007F00900149E0FBA3E0FCA3E0FD8B66
:20253500828C838DF0122FDCFA6039C374B98AF063F08095F04007EA648094B050268B822A
:202555008C838DF0122FDCFABA2D028017BA2B0280120BBB00010C900149EBF0ECA3F0EDD6
:20257500A3F080BB900149EBF0ECA3F0EDA3F08B008C018D028B828C838DF0122FDCFDE486
:20259500BD2D0104FCFB7003BD2B0E900149740128F0E439A3F0EAA3F0900149E0FAA3E00C
:2025B500FCA3E0FD8A828C838DF0122FDCF96066C3E9648094B0405E74B989F063F0809596
:2025D500F04053C003900151EEF0EFA3F090000AC005C004C003C002C0011226D0858217CF
:2025F500858318D001D002D003D004D005E93395E0FBE924D0F9EB34FFFBE92517FEEB35C9
:2026150018FF0ABA00010C900149EAF0ECA3F0EDA3F0D003808E900149EAF0ECA3F0EDA366
:16263500F0EB6009C3E49EFCE49FFD80048E048F058C828D8322A0
:200066007902E94400601B7A01903960788275A001E493F2A308B8000205A0D9F4DAF27522
:02008600A0FFD9
:1B264B0020F71130F6138883A88220F509F6A8837583002280FEF280F5F0228E
:20266600AFF0AE83E58290014EF0EEA3F0EFA3F090014DE0FF90014EE0FCA3E0FDA3E0FED2
:202686008C828D838EF0122FDCFB6018EBB5070280120CBC00010D90014EECF0EDA3F0EECE
:2026A600A3F080DC90014EECF0EDA3F0EEA3F08C828D838EF0122FDCFBB507078C828D83D4
:0A26C6008EF02290000075F0002253
:2026D000AA83AB828BF0900151E0A4F8A9F08AF0E0A429F98BF0A3E0A429F583888222226D
:2026F000A882A983AAF0FB88F0900153E0A4FCADF089F0E0A42DFDE435F0FE88F0A3E0A499
:202710002DFDE5F03EFEE433FF89F0E0A42EFEE5F03FFF88F0A3E0A42EFEE5F03FFF8AF0C4
:20273000900153E0A42EFEE5F03FFF8BF0E0A42FFF8AF0A3E0A42FFF89F0A3E0A42FFF8890
:0C275000F0A3E0A42F8EF08D838C822279
:20008E007800E84400600A790075A000E4F309D8FC7882E84401600C7902900000E4F0A3ED
:0400AE00D8FCD9FAA7
:19275C00E582900157F0FFBF20004009EF248140047582012275820022F3
:02002900E4737E
:20277500C01F85811F121917D01F22AFF0AE83E582900159F0EEA3F0EFA3F0900159E0FD12
:20279500A3E0FEA3E0FF900158E0FC90016CE4F0E4A3F0E4A3F090016FEDF0EEA3F0EFA3AD
:2027B500F0900172ECF09027750228C3C01F85811FE51F24FBFF90016CE4F0E4A3F0E4A327
:2027D500F0E51F24FBF890016FE6F008E6A3F008E6A3F0900172EFF09027751228C3D01F07
:0127F50022C1
:2027F600E582900168F0FF90015EE0C0E0A3E0C0E0A3E0C0E0122810800D90015CE0C0E07B
:20281600A3E0C0E08F8222158115811581900166E02401F0A3E03400F022E582900169F084
:202836002430FF24C6500A74072FFF300B034307208F820227F6E58290016AF0FFC4540FF2
:20285600F582C007122830D00753070F8F82022830E58290016BF0900161E0FCA3E0FDA3CB
:20287600E0FEA3E0FF900165E0FB90016BE0FA753F20EB2BFBEF235401F88B0149FBEC2C0F
:20289600FCED33FDEE33FEEF33FFC3EB9A4007EBC39AFB430401D53FD9900161ECF0EDA364
:2028B600F0EEA3F0EFA3F0900165EBF022AF83E582900173F0EFA3F0900173E0FEA3E0FFA9
:2028D60090015CEEF0EFA3F090016CE0FDA3E0FEA3E0FF90015EEDF0EEA3F0EFA3F0900158
:2028F60066E4F0E4A3F090016FE0FDA3E0FEA3E0FF8D828E838FF0122FDCFC90016F740104
:202916002DF0E43EA3F0EFA3F0EC7003022FB8BC25028003022FB0C20CC20DC20EC20FC2BE
:2029360010C211C212C213900175E4F0900176F090017774FFF090016FE0FDA3E0FEA3E0D8
:20295600FF8D828E838FF0122FDCFBA3AD82AE8390016FEDF0EEA3F0EFA3F0900179EBF0E3
:20297600BB25088B821227F60228FC8B02BA3000403CEA24C64037900177E0FABAFF21C03D
:2029960005C006C007900176E075F00AA42B24D0900176F0D007D006D00570A5D20D80A1E8
:2029B600EA75F00AA42B24D0900177F08093900179E0FBBB2E15900177E0FABAFF028003D7
:2029D600022957900177E4F00229578B02BA61004010EA2485400B90017974DF5BF0D20BA6
:2029F6008002C20B900179E0FBBB2002806DBB2B028063BB2D028059BB42028063BB430253
:202A16008068BB4403022C56BB4603022C78BB4803022957BB4903022C56BB4A03022957EB
:202A3600BB4C028040BB4F03022C60BB5003022BC2BB53028070BB5403022957BB55030276
:202A56002C68BB5803022C70BB5A03022957022C7CD20C022957D20E022957D20F022957AF
:202A7600D211022957D212022957301114900172E0FF1F900172EFF08F01900179E7F0804C
:202A960019900172E0FF1F1F900172EFF08F01870609870719900179EEF0900179E0F582EF
:202AB6001227F6022C88900172E0FF1F1F1F900172EFF08F018705098706098707191990EF
:202AD6000161EDF0EEA3F0EFA3F08D828E838FF0122FC4AE82900177E0FFBFFF0590017718
:202AF600EEF0200C31900176E0FFC3EE9F5027900176EFC39EF0900176E0FF8F051FED60AB
:202B160010758220C007C0061227F6D006D00780EA900176EFF0900177E0FFC00690016120
:202B3600E0FAA3E0FDA3E0FE8A828D838EF0122FDCF519D006E519603F8F051FC3E464802E
:202B56008DF063F08095F0502FC006851982C007C0061227F6D006D007900161E0FAA3E06D
:202B7600FDA3E0FE0ABA00010D900161EAF0EDA3F0EEA3F0D00680A3200C03022C889001B3
:202B960076E0FFC3EE9F4003022C88900176EFC39EF0900176E0FF8F061FEE7003022C838E
:202BB600758220C0071227F6D00780EB900172E0FE1E1E1E900172EEF08E018702098705E7
:202BD6000987061919900161EAF0EDA3F0EEA3F0900163E0FEBE800040089001797443F041
:202BF6008020BE600040089001797450F08013BE400040089001797449F080069001797467
:202C160058F0900179E0FEF582C0061227F675823A1227F67582301227F67582781227F6AE
:202C3600D006BE4902800EBE50028009900162E0F58212284C900161E0F58212284C803227
:202C5600D210900175740AF080289001757408F08020900175740AF080189001757410F0C8
:202C76008010D213800C8B821227F68005900176EFF0301377900172E0FF1F1F1F1F9001ED
:202C960072EFF08F018703098705098706098707191919900161EBF0EDA3F0EEA3F0EFA346
:202CB600F09001617455F07439A3F07480A3F0900161E0F51AA3E0F51BA3E0F51C740125FA
:202CD6001AFAE4351BFBAF1C900161EAF0EBA3F0EFA3F0851A82851B83851CF0122FDCFF13
:202CF60070030228FC8F821227F680C3900175E0F51A70030228FC30114A900172E0FE1E8A
:202D1600900172EEF08E01E7FE3395E0FDFBFA900161EEF0EDA3F0EBA3F0EAA3F030100320
:202D3600022DD4900161E0FAA3E0A3E0A3E07B007D007E00900161EAF0EBA3F0EDA3F0EEF7
:202D5600A3F0807A30122E900172E0FE1E1E1E1E900172EEF08E01870209870309870509DD
:202D76008706191919900161EAF0EBA3F0EDA3F0EEA3F08049900172E0FE1E1E900172EE43
:202D9600F08E01870509870619EE3395E0FBFA900161EDF0EEA3F0EBA3F0EAA3F020101E3F
:202DB600900161E0FAA3E0FBA3E0A3E07D007E00900161EAF0EBA3F0EDA3F0EEA3F0301027
:202DD60030900161E0FAA3E0FBA3E0FDA3E0FE30E71DC3E49AFAE49BFBE49DFDE49EFE90EB
:202DF6000161EAF0EBA3F0EDA3F0EEA3F08002C210D214751D7F751E01751900900165E4BB
:202E1600F0851A82122867201423900165E0C4FA851D82851E83E0FF4202851D82851E8348
:202E3600EAF0151D74FFB51D02151E800C900165E0FA851D82851E83F00519B2149001618A
:202E5600E0FAA3E0FBA3E0FEA3E0FFEA4B4E4F70AB900180E51DF0E51EA3F0900178E51974
:202E7600F0900176E0FF70069001767401F0200D27200C24E51904FF900176E0FEC3EF9EAA
:202E96005011758220C007C0061227F6D006D0071E80EA900176EEF030101175822D122720
:202EB600F6900176E014900176F0802D900178E0FF6026300E1175822B1227F6900176E072
:202ED60014900176F08012300F0F7582201227F6900176E014900176F0200C2A900178E07A
:202EF600FF900176E0FE8E051EC3EF9D5036300D047D3080027D208D82C007C0061227F67A
:202F1600D006D00780E0900176E0FF900178E0FDC39F5009900176EFC39DF0800C9001762E
:202F3600E4F08005900176EEF0900180E0FEA3E0FF900178E0FD8D031DEB603EB2142014B6
:202F5600140EBE00010F8E828F83E0C4540FFB900165F0800E8E828F83E0FB53030F9001E0
:202F760065EBF0900165E0F582C007C006C005122830D005D006D00780BC200C030228FCDF
:202F9600900176E0FF8F061FEE70030228FC758220C0071227F6D00780EB8C821227F6026C
:0E2FB60028FC900166E0FEA3E08E82F58322E7
:0B3955003C4E4F20464C4F41543E00BA
:182FC400AA82AB83122FDC6003A380F8C3E5829AF582E5839BF5832228
:20002B00E58124FCC3C8C0E0C082E608467006E5824583601218E58296F58208E5839642A3
:1B004B008208E5F0964582D082C8D0E0C822758143122FF8E5826003020026C6
:1C2FDC0020F71430F6148883A88220F507E6A88375830022E280F7E49322E02204
:042FF80075820022BC
:00000001FF
