:04000000020059326F
:01000B0032C2
:0100130032BA
:01001B0032B2
:0300230002191DA2
:0300B40002002621
:0300260002028053
:2000B7000022E582900021F0900001E0FF74064FFE900022F0900021E0FDBD01099000221F
:2000D70074046EF0800ABD020790002274026EF0200009900022E0FEB5070122900022E033
:2000F700FF900001F08F82021822AFF0AE83E582900023F0EEA3F0EFA3F0900023E0FDA30C
:20011700E0FEA3E0FF74022DFAE43EFB8F048A828B838CF0122FD0FA8D828E838FF0122F9A
:20013700D0FBA3122FD0FC8B00ECF93395E0FBFC900153EAF0E4A3F0E4A3F0E4A3F08882F1
:2001570089838BF0ECC007C006C0051226E4A982AA83ABF0FCD005D006D00719B9FF091A42
:20017700BAFF051BBBFF011C89828A838BF0ECC007C006C00512172CD005D006D007740399
:200197002DFAE43EFB8F048A828B838CF0122FD0FAA3122FD0FB1ABAFF011B8A828B83C058
:2001B70007C006C00512183DD005D006D00774052DFDE43EFE8D828E838FF0122FD0FDA39A
:2001D700122FD0FE8D828E83121886900000E4F5F00217A7900000E4F09000047407F07439
:2001F70000A3F0E4A3F09000027401F0900003E4F0900001E04401F090000A75F000742641
:2002170012263FA3E412263F9000077432F0E4A3F090000975F000742112263F90000C7593
:20023700F000740A12263FA3E412263FC208121723D20712171EC20712171E1210E99000E3
:2002570000E0FFD2008F821200B9900004E0FDA3E0FEA3E0FF8D828E838FF0120101900043
:2002770002E024FF92080217231219EFD2997440C0E07430C0E07480C0E01227B515811542
:200297008115811201EB90001C7452F07434A3F090345275F08012154E900000E0FFC201F3
:2002B7008F82120C9B90001EE0FEA3E0FF7D80C006C007C0057452C0E07430C0E07480C0A2
:2002D700E01227B5E58124FAF58110090280FBC2AC9000A375F0001210F290001CE0FEA362
:2002F700E0FF7D808E828F838DF01211D2900183E4F0D2AC90001EE0FEA3E0FF7D80C00640
:20031700C007C0057452C0E07430C0E07480C0E01227B5E58124FAF58180AFAFF0AE83E530
:2003370082900026F0EEA3F0EFA3F09000297460F07430A3F07480A3F090002C746AF07442
:2003570030A3F07480A3F0900026E0FDA3E0FEA3E0FF74022DFDE43EFE8D828E838FF01235
:200377002FD0600E90002C7467F07430A3F07480A3F0900001E0FF30E00E9000297455F0B4
:200397007430A3F07480A3F090002CE0C0E0A3E0C0E0A3E0C0E0746EC0E07430C0E074804C
:2003B700C0E01227B5E58124FAF581900029E0C0E0A3E0C0E0A3E0C0E07484C0E07430C023
:2003D700E07480C0E01227B5E58124FAF581900003E0FF7E00C007C006749AC0E07430C01B
:2003F700E07480C0E01227B5E58124FBF58122AFF0AE83E58290002FF0EEA3F0EFA3F090EE
:20041700002FE0FDA3E0FEA3E0FF74022DFAE43EFB8F048A828B838CF0122FD0FA7C00C08C
:2004370007C006C005C002C00474B4C0E07430C0E07480C0E01227B5E58124FBF581D0052F
:20045700D006D0078D828E838FF0122FD0FBA3122FD0FCC007C006C005C003C00474CAC0A6
:20047700E07430C0E07480C0E01227B5E58124FBF581D005D006D00774032DFAE43EFB8FF8
:20049700048A828B838CF0122FD0FAA3122FD0FBC007C006C005C002C00374E0C0E0743082
:2004B700C0E07480C0E01227B5E58124FBF581D005D006D00774052DFDE43EFE8D828E83A3
:2004D7008FF0122FD0FDA3122FD0FEC005C00674F6C0E07430C0E07480C0E01227B5E58105
:2004F70024FBF58122740CC0E07431C0E07480C0E01227B515811581158122AF83E582903A
:200517000032F0EFA3F0900032E0C0E0A3E0C0E0741FC0E07431C0E07480C0E01227B5E5DC
:200537008124FBF58122AF83E582900034F0EFA3F0900034E0C0E0A3E0C0E0742FC0E0747F
:2005570031C0E07480C0E01227B5E58124FBF5812274FAC0E0E4C0E0743DC0E07431C0E0EC
:200577007480C0E01227B5E58124FBF581229000027401F0D208021723900002E4F0C20888
:20059700021723745CC0E07431C0E07480C0E01227B515811581158190000075F000120305
:2005B70032900000E0701E746EC0E07431C0E07480C0E01227B515811581158190000775DD
:2005D700F0000204067488C0E07431C0E07480C0E01227B515811581158190000E75F000E0
:2005F70012040674A0C0E07431C0E07480C0E01227B515811581158190001575F00002047B
:20061700061213E0AE82AF83BEFE06BFFF030204FCEF30E70122C3EE9401EF64809480502B
:20063700078E828F83020512C374FF9E748F8FF063F08095F050078E828F8302053D900066
:2006570004E0F509A3E0F50AA3E0F50B74022509F8E4350AF9AA0B888289838AF0122FD08E
:20067700F5088E00EFF93395E0FAFD900153E508F0E4A3F0E4A3F0E4A3F0888289838AF09B
:20069700EDC007C0061226E4AA82AB83ACF0FDD006D007900036EAF0EBA3F0ECA3F0EDA3E0
:2006B700F0C3EA94FAEB9400EC9400ED94005003020568850982850A83850BF0EE12263FAF
:2006D700A3EF12263FC208121723900000E0FFC2008F821200B9900036E0FCA3E0FDA3E032
:2006F700FEA3E0FF1CBCFF091DBDFF051EBEFF011F8C828D838EF0EF12172C900002E02434
:20071700FF92080217231213E0AE82AF83BEFE06BFFF030204FCEF30E70122C3EE9401EFA3
:200737006480948050078E828F83020512C3743F9EE464808FF063F08095F050078E828F6F
:200757008302053D900004E0FCA3E0FDA3E0FF8C828D838FF0122FD0FAA3122FD0FB8A0068
:20077700EBF93395E0FAFB900153EEF0E4A3F0E4A3F0E4A3F0888289838AF0EBC007C006B2
:20079700C005C0041226E4A882A983AAF0FBD004D005D006D00790003AE8F0E9A3F0EAA3B1
:2007B700F0EBA3F0C3E894FAE99400EA9400EB9400500302056874022CFCE43DFD8C828DE8
:2007D700838FF0EE12263FC208121723900000E0FFC2008F821200B990003AE0FCA3E0FD52
:2007F700A3E0FEA3E0FF1CBCFF091DBDFF051EBEFF011F8C828D838EF0EF12172C900002B4
:20081700E024FF92080217231213E0AE82AF8390003EEEF0EFA3F0EF33E433FD7049C3EEB3
:200837009401EF6480948050078E828F83020512C374FF9E748F8FF063F08095F050078E00
:20085700828F8302053D900004E0FAA3E0FBA3E0FC74032AFAE43BFB8A828B838CF0EE12F3
:20087700263FA3EF12263FED6030BEFF04BFFF0122900004E0FDA3E0FEA3E0FF74032DFDBF
:20089700E43EFE8D828E838FF0122FD0FDA3122FD0FE90003EEDF0EEA3F0C20812172390F0
:2008B7000001E04401F0900000E0FFD2008F821200B990003EE0FEA3E0FF1EBEFF011F8E37
:2008D700828F8312183D900002E024FF9208021723900001E054FEF0C20812172390000141
:2008F700E0F582121822900002E024FF920802172390004075F000121437AE82AF83BEFE23
:2009170006BFFF030204FCEF30E70122C208121723900000E0FFC2008F821200B9900040DB
:20093700E0FCA3E0FDA3E0FEA3E08C828D838EF01217A7900002E024FF9208021723121344
:20095700E0AE82AF83C3EE9401EF6480948050078E828F83020512C374FF9EE464808FF064
:2009770063F08095F050078E828F8302053D900004E0FBA3E0FCA3E0FD74052BFBE43CFC22
:200997008B828C838DF0EE12263FA3EF12263F900000E0FFC2008F821200B9900004E0FDBB
:2009B700A3E0FEA3E0FF74052DFDE43EFE8D828E838FF0122FD0FDA3122FD0FE8D828E83DB
:2009D700021886E582900044F0FFBF01028005BF0210800790000E75F0002290001575F068
:2009F700002290000775F000221213E0AE82E583FF20E710C374029EE464808FF063F080FC
:200A170095F0501674B8C0E07431C0E07480C0E01227B51581158115812275820DC007C0D2
:200A37000612190BD006D007900000E0FFEEB5070122EE7070C00674F5C0E07431C0E07424
:200A570080C0E01227B51581158115817412C0E07432C0E07480C0E01227B5158115811580
:200A770081900140740EF07400A3F0E4A3F09001437407F0E4A3F090000775F00012247CB9
:200A9700C208121723D2007582001200B990000775F000120101900002E024FF920812172D
:200AB70023D006806FEF706CC0067445C0E07432C0E07480C0E01227B5158115811581744F
:200AD70060C0E07432C0E07480C0E01227B51581158115819001407407F07400A3F0E4A3AB
:200AF700F09001437407F0E4A3F090000E75F00012247C9001407407F07400A3F0E4A3F0CA
:200B17009001437407F0E4A3F090001575F00012247CD006900000EEF08E821209DAAD82D4
:200B3700AE83AFF0900004EDF0EEA3F0EFA3F0900000E0FF601B7E00C007C006748BC0E0C6
:200B57007432C0E07480C0E01227B5E58124FBF581900000E0FFC2018F82020C9B1213E0CA
:200B7700AE82AF83BEFE06BFFF030204FCEF30E70122C374079EE464808FF063F08095F0D3
:200B970050078E828F8302053D8EF005F07E017F008006EE2EFEEF33FFD5F0F7900003E020
:200BB700FFEE5F601674B6C0E07432C0E07480C0E01227B515811581158122EF420690001F
:200BD70003EEF08E820218CF900003E4F0900003E0F5820218CF1213E0AE82AF83BEFE06C1
:200BF700BFFF030204FCEF30E70122C374079EE464808FF063F08095F050078E828F8302FC
:200C1700053D8EF005F07E017F008006EE2EFEEF33FFD5F0F7900003E0FFEE5F701674C212
:200C3700C0E07432C0E07480C0E01227B515811581158122EEF45207900003EFF08F820291
:200C570018CF900003E0FF7E00C007C00674CFC0E07432C0E07480C0E01227B5E58124FBE9
:200C7700F581221218EBAF827E00C007C00674E7C0E07432C0E07480C0E01227B5E5812427
:200C9700FBF58122E582900045F030010B90001E742EF07430A3F022900045E0FFBF010233
:200CB7008005BF0218800B90001E740AF07430A3F02290001E741CF07430A3F02290001E8A
:200CD7007401F07430A3F02290001C7423F07435A3F0D201758200120C9B020D0D90001C85
:200CF7007452F07434A3F0900000E0FFC2018F82120C9B020D0D90001CE0FEA3E0FF7D80CB
:200D17008E828F838DF002154EE582900049F07E4A7F007D00900049E0900107F0900108EA
:200D37007407F08E828F838DF0121E4AAF82900049EFF020022E900046E0FCA3E0FDA3E02A
:200D5700FE900140744AF07400A3F0E4A3F09001437407F0E4A3F08C828D838EF0C0071256
:200D7700247CD00790004A75F000C007120406D0078F8222758200121F19AF82902FF0E4B4
:200D970093FEEFB5060280192004157400C0E07433C0E07480C0E01227B51581158115818E
:200DB70022758201121F19AF8274C05FFEBE4002802EBE80157433C0E07433C0E07480C0B3
:200DD700E01227B51581158115817474C0E07433C0E07480C0E01227B51581158115812237
:200DF700EF13920530040420052B223005067EBD7F3380047EC57F337D80C006C007C005A9
:200E170074A3C0E07433C0E07480C0E01227B5E58124FAF5817E517F007D0090010774105A
:200E3700F09001087404F08E828F838DF0121E4AAF822003239001407451F07400A3F0E4A9
:200E5700A3F09001437404F0E4A3F090000075F000C00712247CD007C007745CC0E0743114
:200E7700C0E07480C0E01227B515811581158190005175F000120332D007900051E07031B1
:200E9700C007746EC0E07431C0E07480C0E01227B5158115811581D0079000467407F074DD
:200EB70000A3F0E4A3F0A20392028F82120D208060C0077488C0E07431C0E07480C0E0125A
:200ED70027B5158115811581D007900046740EF07400A3F0E4A3F0A20392028F82120D2037
:200EF700AF82C00774A0C0E07431C0E07480C0E01227B5158115811581D007900046741570
:200F1700F07400A3F0E4A3F0A20392028F82120D2030030122C208121723900000E0701364
:200F3700D2007582001200B990000775F0001201018022D2007582011200B990000E75F0BC
:200F570000120101D2007582021200B990001575F00012010174CEC0E07433C0E07480C0D5
:200F7700E01227B5158115811581900000E0F5821209DAAD82AE83AFF0900004EDF0EEA3ED
:200F9700F0EFA3F02274F1C0E07433C0E07480C0E01227B5158115811581D203C204020D6C
:200FB7008B75820D12190BC203C204020D8B9001137480F0758201121F46758200121F19F8
:200FD700AF82902FF0E493FEEFB50602800B900113EEF0758200121F467E007F0090010CE4
:200FF700EEF0EFA3F0E4A3F090010F7404F0758210121EBDAF82900000E0701C7D077E00D8
:2010170090010CEDF0EEA3F0E4A3F090010F7407F08F82121EBD80367D0E7E0090010CEDF5
:20103700F0EEA3F0E4A3F090010F7407F08F82121EBDAF827D157E0090010CEDF0EEA3F06C
:20105700E4A3F090010F7407F08F82121EBD9001137440F0758201021F4675820D12190B18
:20107700758200121F19AF82902FF0E493FEEFB50602802B7400C0E07433C0E07480C0E07D
:201097001227B51581158115817418C0E07434C0E07480C0E01227B515811581158122753A
:2010B7008201121F19AF8230060990005574014FF0800790005574FE5FF0900055E09001C0
:1910D70013F0758201021F46D206021071C206021071C203D204020D8BC3
:202FF0001F0D0953796E636F436D642D5633310D000D53796E636F3E20000D53796E636FE8
:20301000205B62616E6B20315D3E20000D53796E636F205B62616E6B20325D3E20000D53E0
:20303000796E636F205B454550524F4D5D3E20000D5374617274696E672075702E2E2E0DD4
:203050000D002573004672656552756E5F4456005254535F4456004F4E004F464600202061
:203070004D616E63686F5F456E61626C65203D2025730D00202044565F4D6F646520202004
:20309000202020203D2025730D00202041434443555F6F6E6F66662020203D2030782530CD
:2030B00032780D0020204E756D5F526F77202020202020203D2025640D002020526F775F98
:2030D0004C656E202020202020203D2025640D0020204652756E5F436F756E74202020204B
:2030F0003D2025640D002020436C6F636B5F64697669646572203D2025640D000941524765
:20311000554D454E542052455155495245440009544F4F20534D414C4C202225642200090B
:20313000544F4F2042494720222564220009524F574C454E202A204E554D524F57204D55BA
:203150005354204245203E3D202564000D2053797374656D20636F6E6669673A0D002041DD
:203170006C6C2D62616E6B20636F6E66696775726174696F6E3A0D002042616E6B203120B2
:20319000636F6E66696775726174696F6E3A0D002042616E6B203220636F6E6669677572F5
:2031B0006174696F6E3A0D000942616E6B20617267756D656E74206D757374206265203174
:2031D000206F7220322C206F72203020666F7220756E62616E6B6564206F7065726174692C
:2031F0006F6E2E0D00537769746368696E6720746F20756E62616E6B6564206D6F64652E99
:203210000D005573696E672062616E6B3120636F6E66696775726174696F6E20666F72207F
:20323000756E62616E6B6564206F7065726174696F6E2E0D00537769746368696E672074C6
:203250006F2062616E6B6564206D6F64652E0D00436F7079696E6720636F6E666967757214
:203270006174696F6E20746F2062616E6B3120616E642062616E6B322E0D0042616E6B61DA
:20329000626C6520636F6D6D616E64732077696C6C206E6F7720676F20746F2062616E6B78
:2032B0002025692E0D0009414C5245414459204F4E0009414C5245414459204F4646000D3A
:2032D0000941434443555F6F6E6F6666093D203058253032780D000D0941434443555F53DC
:2032F0007461747573203D203058253032780D00454550524F4D2064617461206E6F742069
:203310007361766564207769746820746869732076657273696F6E206F662053796E636F8F
:203330002E0D00454550524F4D2064617461206D61726B656420617320696E636F6E736925
:203350007374656E742028696E74657272757074656420647572696E672077726974653FFE
:20337000292E0D00454550524F4D20737461747573206279746520696E76616C69643B2017
:203390007265667573696E6720746F206C6F61642E0D0020454550524F4D206C6F616420F4
:2033B0006F6E20626F6F74203D20257300656E61626C65640064697361626C656400436F82
:2033D0006E66696775726174696F6E206C6F616465642066726F6D20454550524F4D2E0DB7
:2033F000000D454550524F4D20636F6E7461696E7320736176656420636F6E6669677572B9
:203410006174696F6E3A0D0057726974652076616C696420646174612066697273742C20B1
:1C3430007468656E206D616E6970756C61746520626F6F74206D6F64652E0D00AD
:2010F0000022AFF0AE83E58290007DF0EEA3F0EFA3F090007DE0FDA3E0FEA3E0FF90012CDD
:20111000747BF07435A3F07480A3F08D828E838FF0122284AD82AE83AFF0900056EDF0EE16
:20113000A3F0EFA3F07E017F00900151EEF0EFA3F0900003C007C0061226C4AC82AD83ECE4
:201150002456FCED3400FD90012C747BF07435A3F07480A3F090000075F000C005C00412FC
:201170002284A982AA83ABF0D004D005D006D0078C828D83E9F0EAA3F0EBA3F0E94A6010DB
:201190000EBE00010FC3EE940BEF648094804099900151EEF0EFA3F09000031226C4AE8252
:2011B000AF83EE2456F582EF3400F583E4F0E4A3F0E4A3F090007A7456F07400A3F0E4A35F
:2011D000F022AFF0AE83E582900080F0EEA3F0EFA3F0900080E0FDA3E0FEA3E0FFC007C03C
:2011F00006C0051213A1AA82AB83ACF0D005D006D007EA4B700122900083E4F07800790036
:20121000900151E8F0E9A3F090000BC007C006C005C004C003C002C001C0001226C48582CE
:201230000C85830DD000D001D002D003D004D005D006D007E50C2DF50EE50D3EF50F8F10ED
:20125000850E82850F838510F0122FD0F511A3122FD0F512A3122FD0F513C011C012C013C9
:2012700090000075F00012002B158115811581700302137BC005C006C007851182851283E3
:201290008513F0C007C006C005C004C003C002C001C000122FB8858211858312D000D001CE
:2012B000D002D003D004D005D006D007850E82850F838510F0122FD0FDA3122FD0FEA312FD
:2012D0002FD0FF900138EDF0EEA3F0EFA3F090013BE511F0E512A3F08A828B838CF0C007BE
:2012F000C006C005C004C003C002C001C0001223CBE5828583F0D000D001D002D003D00410
:20131000D005D006D007D007D006D00545F07053C002C003C0049000837401F0E50C2DFAE8
:20133000E50D3EFB8F0474032AFAE43BFB8A828B838CF0122FD0FAA3122FD0FBC007C0064D
:20135000C005C004C003C0028A828B83120029D002D003D004D005D006D007D004D003D0A8
:2013700002800808B8000109021210900083E0F960030211EDC002C003C004747FC0E07446
:2013900035C0E07480C0E01227B5E58124FAF5812290007AE0FDA3E0FEA3E0FF8D828E83C0
:2013B0008FF0122FD0FAA3122FD0FBA3122FD0FCEA4B601590007A74032DF0E43EA3F0EF48
:2013D000A3F08A828B838CF02290000075F000221213A1AD82AE83AFF0ED4E700490FFFE9A
:2013F000228D828E838FF0122FD0F582C007C006C0051224F0E582D005D006D007701FC0E4
:2014100005C006C007747FC0E07435C0E07480C0E01227B5E58124FAF58190FFFF228D8213
:201430008E838FF0022509AFF0AE83E582900084F0EEA3F0EFA3F01213A1AD82AE83AFF0D9
:20145000ED4E700490FFFE228D828E838FF0122FD0F582C007C006C0051224F0E582D00543
:20147000D006D007701FC005C006C007747FC0E07435C0E07480C0E01227B5E58124FAF5F7
:201490008190FFFF22900084E0FAA3E0FBA3E0FC9000FA7487F07400A3F0E4A3F09000FDA0
:2014B000740AF0E4A3F08D828E838FF0C004C003C002121ABEA982AD83AEF0FFD002D003C8
:2014D000D0048A828B838CF0E912263FA3ED12263FA3EE12263FA3EF12263F90000122AFB8
:2014F000F0AE83E58290008AF0EEA3F0EFA3F090008AE0FDA3E0FEA3E0FF7C008D828E83B1
:201510008FF0122FD0FB60280DBD00010E90008AEDF0EEA3F0EFA3F08B82C007C006C00576
:20153000C00412190BD004D005D006D0070C80CC90008AEDF0EEA3F0EFA3F08C8222AFF02A
:20155000AE83E58290008DF0EEA3F0EFA3F090008DE0FDA3E0FEA3E0FF7B007C00900151FD
:20157000EBF0ECA3F090000BC007C006C005C004C0031226C4A982AA83D003D004D005D0ED
:2015900006D007E92DF514EA3EF5158F16C003C0048514828515838516F0122FD0F8A31260
:2015B0002FD0FBA3122FD0FCE4C0E0E4C0E0E4C0E088828B838CF012002B15811581158152
:2015D0007005D004D00322D004D003C003C00490358B75F080C007C006C005C004C003C0C1
:2015F00002C0011214EFD001D002D003D0048514828515838516F0122FD0F8A3122FD0FB3E
:20161000A3122FD0FC88828B838CF0C003C002C0011214EFAC82D001D002D003D005D006CC
:20163000D0077410C39CFCE92DF9EA3EFA8F03740529F9E43AFA89828A838BF0122FD0F9D1
:20165000A3122FD0FAA3122FD0FB89828A838BF0C007C006C005C0041214EFAB82D004D08E
:2016700005D006D007ECC39BF514D004D003C3E464808514F063F08095F05022758209C010
:2016900007C006C005C004C00312190BD003D004D005D006D007E51424F8F51480D09001C3
:2016B00051EBF0ECA3F090000BC007C006C005C004C0031226C4A982AA83D003D004D0052B
:2016D000D006D007E92DF9EA3EF88F02740829F9E438F8898288838AF0122FD0F9A3122F5D
:2016F000D0F8A3122FD0FA898288838AF0C007C006C005C004C0031214EFD003D004D0056A
:0C171000D006D0070BBB00010C02156DC9
:20344C00206E002020008F35800D0D4F3480913580A235809A054F3480A43580B635801816
:20346C00064C3480B93580D335801D074C3480D63580EF3580E8084F3480F23580FF3580A3
:20348C001F084C348002368021368008094C34802436804E368055094C3480523680A83637
:2034AC008090054F3480AB3680C2368085054F3480C53680D53680DF0B4F3480D93680E917
:2034CC003680ED0B4C3480ED3680093780740B4C34800D3780293780590C4F34802D378060
:2034EC004737807A0C4F34804A37805B3780000A4C34806037807E3780DF0C4F3480853726
:20350C0080A43780EB014F3480A7378000000000000000000000008F35800D0D4F34809185
:20352C003580BD3780F40C4F3480C23780D637809C0F4F3480DB3780FD3780B80F4F34808F
:20354C00023880223880C50F4F34802738804D3880DF104F34805938808B3880E4104F3453
:20356C00809838800000000000000000000000200A0D0009574841543F2022257322000DB3
:20358C00092000680068656C702C2074686973207374756666003F00676574204D616E637B
:2035AC00686F2053746174757300726C0073657420526F775F4C656E096E203D20312074CB
:2035CC006F2034303935006E7200736574204E756D5F526F7773096E203D203120746F20B0
:2035EC00363300727400736574205254535F4D6F646500667200736574204672656552759A
:20360C006E204D6F6465096E203D203120746F203430393500666E00736574204672616DAB
:20362C00652053657175656E6365204E756D626572096E203D203020746F20325E33322DCE
:20364C003100636B6400736574207468652064697669736F7220666F722074686520616481
:20366C006A75737461626C6520636C6F636B206F7574707574202835304D487A2F636B64CA
:20368C0029096E203D203120746F20323535202864656661756C743D3130290073740073C3
:2036AC00746F702C2064697361626C65204D616E63686F757400676F00656E61626C6520CF
:2036CC004D616E63686F757400647061007077722064697361626C6520616C6C006470757B
:2036EC00007077722064697361626C6520756E6974096E203D203020746F203700657075C9
:20370C000070777220656E61626C6520756E697420096E203D203020746F203700706F66FA
:20372C00006765742041434443555F6F6E6F666620636E746C2062797465007073006765F2
:20374C0074204143444355207374617475730062616E6B004368616E676520746172676590
:20376C00742062616E6B20666F7220706172616D7300656570726F6D00456E746572204517
:20378C004550524F4D206D616E6970756C6174696F6E206D6F6465007265005265736574CA
:2037AC0020616C6C20746F2064656661756C747300657869740072657475726E20746F20AC
:2037CC006D61696E206D656E750064756D70005072696E742063757272656E7420636F6E1D
:2037EC0074656E7473206F6620454550524F4D2E006C6F6164004C6F616420636F6E666935
:20380C006775726174696F6E2066726F6D20454550524F4D2E0073617665005361766520EB
:20382C0063757272656E7420636F6E66696775726174696F6E20746F20454550524F4D2EC8
:20384C0000656E61626C655F626F6F74005365742073797374656D20746F206C6F6164200E
:20386C00454550524F4D20706172616D6574657273206F6E2073746172742D75702E006431
:20388C00697361626C655F626F6F74005365742073797374656D20746F204E4F54206C6F99
:2038AC00616420454550524F4D20706172616D6574657273206F6E2073746172742D75709E
:0238CC002E00CC
:20171C000022A207929022300803C29122D29122AF82AE83ADF0FC900094EFF0EEA3F0EDFD
:20173C00A3F0ECA3F0900094E0FCA3E0FDA3E0FEA3E0FF900090ECF0EDA3F0EEA3F0EFA369
:20175C00F075A010900090E0F58000C2B6D2B675A011900091E0F58000C2B6D2B675A01220
:20177C00900092E0F58000C2B6D2B675A013900093E0F58000C2B6D2B675A001758001002A
:20179C00C2B6D2B675A0FF7580FF22AF82AE83ADF0FC900098EFF0EEA3F0EDA3F0ECA3F081
:2017BC00900098E0FCA3E0FDA3E0FEA3E0FF900090ECF0EDA3F0EEA3F0EFA3F075A0109052
:2017DC000090E0F58000C2B6D2B675A011900091E0F58000C2B6D2B675A012900092E0F54E
:2017FC008000C2B6D2B675A013900093E0F58000C2B6D2B675A00175800400C2B6D2B67529
:20181C00A0FF7580FF22E58290009CF075A00290009CE0F58000C2B6D2B675A0FF7580FFD4
:20183C0022AF83E58290009DF0EFA3F090009DE0FEA3E0FF900090EEF0EFA3F075A0109070
:20185C000090E0F58000C2B6D2B675A011900091E0F58000C2B6D2B675A00175800200C21C
:20187C00B6D2B675A0FF7580FF22AF83E58290009FF0EFA3F090009FE0FEA3E0FF900090FB
:20189C00EEF0EFA3F075A010900090E0F58000C2B6D2B675A011900091E0F58000C2B6D24C
:2018BC00B675A00175800500C2B6D2B675A0FF7580FF22E5829000A1F075A0209000A1E04E
:2018DC00F5800000C2B6D2B675A0FF7580FF2275A021C2B7000000009000A2E580F0D2B78E
:0D18FC0075A0FF7580FF9000A2E0F582222C
:0200B200C20981
:201909000022E5829000F5F010990280FB9000F5E0F59922C023C0E0C0F0C082C083C00706
:20192900C006C005C004C003C002C001C000C0D075D0001098030219D2AF99900182EFF0A2
:201949008F82122750E582601FC299900182E0FF8F99900183E0FE90018304F0EE24A3F5E5
:2019690082E43400F583EFF0900183E0FFC3648094D14006EF14900183F0900182E0FFBF70
:20198900082E900183E0FEC3E464808EF063F08095F0501CC2998F99EE24A3F582E4340082
:2019A900F583E4F0900183E0FE14900183F08019BF0D16900183E0FF24A3F582E43400F50F
:2019C90083E4F0900183F0D209D0D0D000D001D002D003D004D005D006D007D083D082D017
:2019E900F0D0E0D02332759850539BEC439B0E438780759A64758F7FD2ACD2AF439B10D2F7
:091A090099900183E4F0C2092266
:0239370072001C
:201A1200E5829000F6F0FFE4BF200104F58222E5829000F7F0FFC3648094B0B3E433FE6087
:201A320010C374B98FF063F08095F0B3E433FF70047F0080027F018F8222E5829000F8F0ED
:201A5200FFC3648094E1B3E433FE6010C374FA8FF063F08095F0B3E433FE7020C3EF64802B
:201A720094C1B3E433FE6010C374DA8FF063F08095F0B3E433FF70047F0080027F018F8210
:201A920022E5829000F9F0FFC3648094C1B3E433FE6010C374DA8FF063F08095F0B3E4334D
:201AB200FF70047F0080027F018F8222AFF0AE83E5829000FFF0EEA3F0EFA3F09000FFE0C5
:201AD200F538A3E0F539A3E0F53AE4F52EF52FA838A939AA3A888289838AF0122FD0FCA353
:201AF200A882A983ECF5283395E0F529AC288C82C002C001C000121A12E582D000D001D074
:201B12000270D2900102E8F0E9A3F0EAA3F0742DB52806E4B5290280028028752E01752F51
:201B320000888289838AF0122FD0FC900102740128F0E439A3F0EAA3F0ECF5283395E0F503
:201B520029802D742BB52806E4B5290280028020888289838AF0122FD0FC90010274012868
:201B7200F0E439A3F0EAA3F0ECF5283395E0F5299000FDE0FBA3E0FC4B6006BB105EBC00EA
:201B92005B7430B52806E4B529028002804E900102E0FAA3E0FBA3E0FC8A828B838CF0122B
:201BB2002FD0F9B978028003B9583174012AF8E43BF98C07888289838FF0122FD0F8882893
:201BD2003395E0F52990010274022AF0E43BA3F0ECA3F09000FD7410F0E4A3F09000FDE0F4
:201BF200FBA3E0FC4B701B7430B52806E4B52902800280047C0880027C0A9000FDECF0E459
:201C1200A3F09000FDE0FBA3E0FC8B34F5353395E0F536F537900120E534F0E535A3F0E504
:201C320036A3F0E537A3F090FFFF74FFF5F0C004C00312217685822A85832B85F02CF52DDD
:201C5200900115E534F0E535A3F0E536A3F0E537A3F090FFFF74FFF5F0122035AA82AD8310
:201C7200AEF0FFD003D0048A328D33E4F524F525F526F527F530F531900102E0F53BA3E0D3
:201C9200F53CA3E0F53D85283E853E82C004C003121A21E582D003D004600EE52824D0F5D6
:201CB20028E52934FFF529803E853E82C004C003121A4CE582D003D0047003021DCA853E5C
:201CD20082C004C003121A93E582D003D0046005753E378003753E57AA3E7D00E528C39A71
:201CF200F528E5299DF529C3E5289BE52964808CF063F08095F04003021DCAE53120E73A38
:201D1200C3E52A9524E52B9525E52C9526E52D95274027E52AB5242AE52BB52525E52CB574
:201D32002620E52DB5271BC3E5329528E53364808529F063F08095F050087530FF7531FF18
:201D52008057753001753100900153E534F0E535A3F0E536A3F0E537A3F0852482852583FF
:201D72008526F0E527C004C0031226E485822485832585F026F527D003D004AA28E529FD74
:201D92003395E0FEFFEA2524F524ED3525F525EE3526F526EF3527F527853B82853C838509
:201DB2003DF0122FD0FFA385823B85833CEFF5283395E0F529021C98E53130E71574FFF579
:201DD20024F525F526F52790011E7422F0E4A3F0801BE52E452F6015C3E49524F524E49547
:201DF20025F525E49526F526E49527F5279000FAE0FDA3E0FEA3E0FFED4E602EE53045315E
:201E1200600EE53B24FFFAE53C34FFFBAC3D8006AA38AB39AC3A8D828E838FF0EA12263F9B
:161E3200A3EB12263FA3EC12263F8524828525838526F0E527226E
:201E48000022AFF0AE83E582900109F0EEA3F0EFA3F0900107E0FF900109E0FCA3E0FDA384
:201E6800E0FE900108E0FB8B021BEA603A8F020F8A82C007C006C005C004C003121F19AA63
:201E880082D003D004D005D006D0078C828D838EF0EA12263FA3AC82AD83900109ECF0ED2E
:201EA800A3F0EEA3F080C0900109ECF0EDA3F0EEA3F08F8222E582900110F0FF90010CE0A8
:201EC800FCA3E0FDA3E0FE90010FE0FB8B021BEA60378F020F900110EFF08C828D838EF09D
:201EE800122FD0F9A3AC82AD83900113E9F08A82C007C006C005C004C003121F46D003D053
:201F080004D005D006D00780C3900110EFF08F8222E582900111F0900112E58EF09001119C
:201F2800E0900105F09001067408F0438E20121F9B900112E0F58E900106E0F58222E582F6
:201F4800900114F0900105F0900113E0900106F0121FBC7E007F008E048F050EBE00010F67
:201F68007B007A00C3EC9460ED94EAEB9400EA648094805007E5D220E0DDD32274CEC0E033
:201F88007438C0E07480C0E01227B5158115811581C322C083C082C0E0900105E075D202E0
:201FA800F582E4F583E075D200900106F0D0E0D082D08322C083C082C0E0C0F0900106E0D5
:201FC800F5F0900105E075D202F582E4F583E5F0F075D25275D2A275D200D0F0D0E0D08232
:201FE800D083221213E0AE82740F5EFFEEB50702800B9001137474F08F82021F468F82C053
:2020080007121F19AE82D007EE3395E0FD7C00C006C005C007C004741CC0E07439C0E0744A
:0D20280080C0E01227B5E58124F9F5812282
:2038CE005761726E696E67212054696D65642D6F75742077616974696E6720666F7220456C
:2038EE00454255535920746F2064726F702E20454550524F4D207772697465206D61792072
:1E390E0068617665206661696C65642E0D00202052656164202578203D2025780D0097
:20203500AF82AE83ADF0FC900119EFF0EEA3F0EDA3F0ECA3F090011DE4F0900119E0FCA3DC
:20205500E0FDA3E0FEA3E0FF7B00900115E0F53FA3E0F540A3E0F541A3E0F542235401FAB9
:202075007074C003E53F253FF8E54033F9E54133FAE54233FB900115E8F0E9A3F0EAA3F0B4
:20209500EBA3F0900115E0F53FA3E0F540A3E0F541A3E0F542C3EC953FED9540EE9541EFD0
:2020B5009542D0035027E542C313F542E54113F541E54013F540E53F13F53F900115F0E5F4
:2020D50040A3F0E541A3F0E542A3F080090B90011DEBF002205F90011DE0FF900119E0FBF5
:2020F500A3E0FCA3E0FDA3E0FE900115E0F53FA3E0F540A3E0F541A3E0F542C3EB953FECF8
:202115009540ED9541EE95424017900119EBC3953FF0EC9540A3F0ED9541A3F0EE9542A3C8
:20213500F0900115E0FBA3E0FCA3E0FDA3E0C313FEED13FDEC13FCEB13FB900115F0ECA3AD
:20215500F0EDA3F0EEA3F08F061FEE708E900119E0FCA3E0FDA3E0FEA3E08C828D838EF033
:012175002247
:20217600AF82AE83ADF0FC900124EFF0EEA3F0EDA3F0ECA3F0900128E4F0E4A3F0E4A3F0BF
:20219600E4A3F0900120E0FCA3E0FDA3E0FEA3E0FF753F20900124E0F8A3E0F9A3E0FAA3A5
:2021B600E0FB33920AE828F8E933F9EA33FAEB33FB900124E8F0E9A3F0EAA3F0EBA3F0907E
:2021D6000128E0F8A3E0F9A3E0FAA3E0FBE828F8E933F9EA33FAEB33FB900128E8F0E9A307
:2021F600F0EAA3F0EBA3F0300A1E900128E0F8A3E0F9A3E0FAA3E0FB900128740148F0E92F
:20221600A3F0EAA3F0EBA3F0900128E0F8A3E0F9A3E0FAA3E0FBC3E89CE99DEA9EEB9F40F3
:2022360031900128E8C39CF0E99DA3F0EA9EA3F0EB9FA3F0900124E0F8A3E0F9A3E0FAA3ED
:20225600E0FB900124740148F0E9A3F0EAA3F0EBA3F0D53F0280030221AA900124E0FCA31A
:0E227600E0FDA3E0FEA3E08C828D838EF022BB
:20228400AFF0AE83E58290012FF0EEA3F0EFA3F090012FE0FDA3E0FEA3E0FFED4E600B907A
:2022A4000132EDF0EEA3F0EFA3F0900132E0FDA3E0FEA3E0FFED4E7006900000F5F022908C
:2022C4000132E0FDA3E0FEA3E0FF8D828E838FF0122FD0FF603190012CE0FCA3E0FDA3E00B
:2022E400FE90014DEFF08C828D838EF012265AAD82AE83AFF0ED4E600E900132E02401F091
:20230400A3E03400F080B8900132E0FDA3E0FEA3E0FF900135EDF0EEA3F0EFA3F0900132CE
:20232400E0FDA3E0FEA3E0FF8D828E838FF0122FD0FF606490012CE0FCA3E0FDA3E0FE901C
:20234400014DEFF08C828D838EF012265AAD82AE83AFF0ED4E6033900132E0FDA3E0FEA38D
:20236400E0FF8D828E838FF0E412263F900132E02401F0A3E03400F0900135E0FDA3E0FEFD
:20238400A3E0FF8D828E838FF022900132E02401F0A3E03400F08085900132E4F0E4A3F084
:2023A400E4A3F0900135E0FDA3E0FEA3E0FF8D828E838FF0122FD060078D828E838FF02224
:0723C40090000075F00022FB
:2023CB00AFF0AE83E58290013DF0EEA3F0EFA3F090013BE0FEA3E0FF4E70049000002290CA
:2023EB00013DE0FBA3E0FCA3E0FD900138E0F8A3E0F9A3E0FA1EBEFF011FEE4F60418B823A
:20240B008C838DF0122FD0F53F6034C006C007888289838AF0122FD0FFB53F028006D007CC
:20242B00D006801BD007D0060BBB00010C90013DEBF0ECA3F0EDA3F008B800B90980B690B0
:20244B00013DEBF0ECA3F0EDA3F08B828C838DF0122FD0FB3395E0FF888289838AF0122F3C
:11246B00D0F83395E0FEEBC398FBEF9E8B82F583227D
:06008800E4787FF6D8FDCC
:20247C00AFF0AE83E582900145F0EEA3F0EFA3F0900145E0F53FA3E0F540A3E0F541AA3FFC
:20249C00AB40AC41900140E0F8A3E0F9A3E0FF900143E0F542A3E0F543AD42AE4315427450
:2024BC00FFB542021543ED4E6020888289838FF0122FD0FEA3A882A9838A828B838CF0EED4
:1424DC0012263FA3AA82AB8380CF853F828540838541F022C3
:1924F000E582900148F0FFBF30004009EF24C6400475820122758200221C
:20250900AFF0AE83E582900149F0EEA3F0EFA3F07E007F00900149E0FBA3E0FCA3E0FD8B72
:20252900828C838DF0122FD0FA6039C374B98AF063F08095F04007EA648094B050268B8242
:202549008C838DF0122FD0FABA2D028017BA2B0280120BBB00010C900149EBF0ECA3F0EDEE
:20256900A3F080BB900149EBF0ECA3F0EDA3F08B008C018D028B828C838DF0122FD0FDE49E
:20258900BD2D0104FCFB7003BD2B0E900149740128F0E439A3F0EAA3F0900149E0FAA3E018
:2025A900FCA3E0FD8A828C838DF0122FD0F96066C3E9648094B0405E74B989F063F08095AE
:2025C900F04053C003900151EEF0EFA3F090000AC005C004C003C002C0011226C4858217E7
:2025E900858318D001D002D003D004D005E93395E0FBE924D0F9EB34FFFBE92517FEEB35D5
:2026090018FF0ABA00010C900149EAF0ECA3F0EDA3F0D003808E900149EAF0ECA3F0EDA372
:16262900F0EB6009C3E49EFCE49FFD80048E048F058C828D8322AC
:200066007902E94400601B7A01903937788275A001E493F2A308B8000205A0D9F4DAF2754B
:02008600A0FFD9
:1B263F0020F71130F6138883A88220F509F6A8837583002280FEF280F5F0229A
:20265A00AFF0AE83E58290014EF0EEA3F0EFA3F090014DE0FF90014EE0FCA3E0FDA3E0FEDE
:20267A008C828D838EF0122FD0FB6018EBB5070280120CBC00010D90014EECF0EDA3F0EEE6
:20269A00A3F080DC90014EECF0EDA3F0EEA3F08C828D838EF0122FD0FBB507078C828D83EC
:0A26BA008EF02290000075F000225F
:2026C400AA83AB828BF0900151E0A4F8A9F08AF0E0A429F98BF0A3E0A429F5838882222279
:2026E400A882A983AAF0FB88F0900153E0A4FCADF089F0E0A42DFDE435F0FE88F0A3E0A4A5
:202704002DFDE5F03EFEE433FF89F0E0A42EFEE5F03FFF88F0A3E0A42EFEE5F03FFF8AF0D0
:20272400900153E0A42EFEE5F03FFF8BF0E0A42FFF8AF0A3E0A42FFF89F0A3E0A42FFF889C
:0C274400F0A3E0A42F8EF08D838C822285
:20008E007800E84400600A790075A000E4F309D8FC7882E84401600C7902900000E4F0A3ED
:0400AE00D8FCD9FAA7
:19275000E582900157F0FFBF20004009EF248140047582012275820022FF
:02002900E4737E
:20276900C01F85811F12190BD01F22AFF0AE83E582900159F0EEA3F0EFA3F0900159E0FD2A
:20278900A3E0FEA3E0FF900158E0FC90016CE4F0E4A3F0E4A3F090016FEDF0EEA3F0EFA3B9
:2027A900F0900172ECF09027690228B7C01F85811FE51F24FBFF90016CE4F0E4A3F0E4A34B
:2027C900F0E51F24FBF890016FE6F008E6A3F008E6A3F0900172EFF09027691228B7D01F2B
:0127E90022CD
:2027EA00E582900168F0FF90015EE0C0E0A3E0C0E0A3E0C0E0122804800D90015CE0C0E093
:20280A00A3E0C0E08F8222158115811581900166E02401F0A3E03400F022E582900169F090
:20282A002430FF24C6500A74072FFF300B034307208F820227EAE58290016AF0FFC4540F0A
:20284A00F582C007122824D00753070F8F82022824E58290016BF0900161E0FCA3E0FDA3EF
:20286A00E0FEA3E0FF900165E0FB90016BE0FA753F20EB2BFBEF235401F88B0149FBEC2C1B
:20288A00FCED33FDEE33FEEF33FFC3EB9A4007EBC39AFB430401D53FD9900161ECF0EDA370
:2028AA00F0EEA3F0EFA3F0900165EBF022AF83E582900173F0EFA3F0900173E0FEA3E0FFB5
:2028CA0090015CEEF0EFA3F090016CE0FDA3E0FEA3E0FF90015EEDF0EEA3F0EFA3F0900164
:2028EA0066E4F0E4A3F090016FE0FDA3E0FEA3E0FF8D828E838FF0122FD0FC90016F74011C
:20290A002DF0E43EA3F0EFA3F0EC7003022FACBC25028003022FA4C20CC20DC20EC20FC2E2
:20292A0010C211C212C213900175E4F0900176F090017774FFF090016FE0FDA3E0FEA3E0E4
:20294A00FF8D828E838FF0122FD0FBA3AD82AE8390016FEDF0EEA3F0EFA3F0900179EBF0FB
:20296A00BB25088B821227EA0228F08B02BA3000403CEA24C64037900177E0FABAFF21C061
:20298A0005C006C007900176E075F00AA42B24D0900176F0D007D006D00570A5D20D80A1F4
:2029AA00EA75F00AA42B24D0900177F08093900179E0FBBB2E15900177E0FABAFF028003E3
:2029CA0002294B900177E4F002294B8B02BA61004010EA2485400B90017974DF5BF0D20BCA
:2029EA008002C20B900179E0FBBB2002806DBB2B028063BB2D028059BB42028063BB43025F
:202A0A008068BB4403022C4ABB4603022C6CBB480302294BBB4903022C4ABB4A0302294B33
:202A2A00BB4C028040BB4F03022C54BB5003022BB6BB53028070BB540302294BBB550302A6
:202A4A002C5CBB5803022C64BB5A0302294B022C70D20C02294BD20E02294BD20F02294B0F
:202A6A00D21102294BD21202294B301114900172E0FF1F900172EFF08F01900179E7F08070
:202A8A0019900172E0FF1F1F900172EFF08F01870609870719900179EEF0900179E0F582FB
:202AAA001227EA022C7C900172E0FF1F1F1F900172EFF08F01870509870609870719199013
:202ACA000161EDF0EEA3F0EFA3F08D828E838FF0122FB8AE82900177E0FFBFFF0590017730
:202AEA00EEF0200C31900176E0FFC3EE9F5027900176EFC39EF0900176E0FF8F051FED60B7
:202B0A0010758220C007C0061227EAD006D00780EA900176EFF0900177E0FFC00690016138
:202B2A00E0FAA3E0FDA3E0FE8A828D838EF0122FD0F519D006E519603F8F051FC3E4648046
:202B4A008DF063F08095F0502FC006851982C007C0061227EAD006D007900161E0FAA3E085
:202B6A00FDA3E0FE0ABA00010D900161EAF0EDA3F0EEA3F0D00680A3200C03022C7C9001CB
:202B8A0076E0FFC3EE9F4003022C7C900176EFC39EF0900176E0FF8F061FEE7003022C77B2
:202BAA00758220C0071227EAD00780EB900172E0FE1E1E1E900172EEF08E018702098705FF
:202BCA000987061919900161EAF0EDA3F0EEA3F0900163E0FEBE800040089001797443F04D
:202BEA008020BE600040089001797450F08013BE400040089001797449F080069001797473
:202C0A0058F0900179E0FEF582C0061227EA75823A1227EA7582301227EA7582781227EAEA
:202C2A00D006BE4902800EBE50028009900162E0F582122840900161E0F58212284080324B
:202C4A00D210900175740AF080289001757408F08020900175740AF080189001757410F0D4
:202C6A008010D213800C8B821227EA8005900176EFF0301377900172E0FF1F1F1F1F900105
:202C8A0072EFF08F018703098705098706098707191919900161EBF0EDA3F0EEA3F0EFA352
:202CAA00F0900161742CF07439A3F07480A3F0900161E0F51AA3E0F51BA3E0F51C7401252F
:202CCA001AFAE4351BFBAF1C900161EAF0EBA3F0EFA3F0851A82851B83851CF0122FD0FF2B
:202CEA0070030228F08F821227EA80C3900175E0F51A70030228F030114A900172E0FE1EBA
:202D0A00900172EEF08E01E7FE3395E0FDFBFA900161EEF0EDA3F0EBA3F0EAA3F03010032C
:202D2A00022DC8900161E0FAA3E0A3E0A3E07B007D007E00900161EAF0EBA3F0EDA3F0EE0F
:202D4A00A3F0807A30122E900172E0FE1E1E1E1E900172EEF08E01870209870309870509E9
:202D6A008706191919900161EAF0EBA3F0EDA3F0EEA3F08049900172E0FE1E1E900172EE4F
:202D8A00F08E01870509870619EE3395E0FBFA900161EDF0EEA3F0EBA3F0EAA3F020101E4B
:202DAA00900161E0FAA3E0FBA3E0A3E07D007E00900161EAF0EBA3F0EDA3F0EEA3F0301033
:202DCA0030900161E0FAA3E0FBA3E0FDA3E0FE30E71DC3E49AFAE49BFBE49DFDE49EFE90F7
:202DEA000161EAF0EBA3F0EDA3F0EEA3F08002C210D214751D7F751E01751900900165E4C7
:202E0A00F0851A8212285B201423900165E0C4FA851D82851E83E0FF4202851D82851E8360
:202E2A00EAF0151D74FFB51D02151E800C900165E0FA851D82851E83F00519B21490016196
:202E4A00E0FAA3E0FBA3E0FEA3E0FFEA4B4E4F70AB900180E51DF0E51EA3F0900178E51980
:202E6A00F0900176E0FF70069001767401F0200D27200C24E51904FF900176E0FEC3EF9EB6
:202E8A005011758220C007C0061227EAD006D0071E80EA900176EEF030101175822D122738
:202EAA00EA900176E014900176F0802D900178E0FF6026300E1175822B1227EA900176E096
:202ECA0014900176F08012300F0F7582201227EA900176E014900176F0200C2A900178E092
:202EEA00FF900176E0FE8E051EC3EF9D5036300D047D3080027D208D82C007C0061227EA92
:202F0A00D006D00780E0900176E0FF900178E0FDC39F5009900176EFC39DF0800C9001763A
:202F2A00E4F08005900176EEF0900180E0FEA3E0FF900178E0FD8D031DEB603EB2142014C2
:202F4A00140EBE00010F8E828F83E0C4540FFB900165F0800E8E828F83E0FB53030F9001EC
:202F6A0065EBF0900165E0F582C007C006C005122824D005D006D00780BC200C030228F003
:202F8A00900176E0FF8F061FEE70030228F0758220C0071227EAD00780EB8C821227EA029C
:0E2FAA0028F0900166E0FEA3E08E82F58322FF
:0B392C003C4E4F20464C4F41543E00E3
:182FB800AA82AB83122FD06003A380F8C3E5829AF582E5839BF5832240
:20002B00E58124FCC3C8C0E0C082E608467006E5824583601218E58296F58208E5839642A3
:1B004B008208E5F0964582D082C8D0E0C822758143122FECE5826003020026D2
:1C2FD00020F71430F6148883A88220F507E6A88375830022E280F7E49322E02210
:042FEC0075820022C8
:00000001FF
