:0400000002002B329D
:01000B0032C2
:0100130032BA
:01001B0032B2
:03002300020E10BA
:030086000200264F
:030026000201488C
:2000890000229000057401F09000007426F0E4A3F09000027432F0E4A3F09000047421F0F2
:2000A900D200900006E4F0900007740AF0E4A3F0C202120C16D201120C11C201120C119003
:2000C9000004E0FF900002E0FDA3E0FE3395E0FCFB900102EFF0E4A3F0E4A3F0E4A3F08D41
:2000E900828E838CF0EB12196FAC82AD83AEF0FF1CBCFF011DED3395E0FF8C828D838FF042
:20010900120C1F900000E0FEA3E0FF1EBEFF011F8E828F83120D30900007E0FEA3E0FF8EB8
:20012900828F83120D79900005E0F582120D15900000E4F5F0120C9AA2009202020C1612ED
:200149000EE2D299120B66748BC0E07422C0E07480C0E07494C0E07422C0E07480C0E012CB
:200169001A40E58124FAF58112008B10030280FBC2AC90006A75F00012077D902498E493CF
:20018900FE740193FF90004CEEF0EFA3F09023E875F08012085D900132E4F0D2AC748BC04A
:2001A900E07422C0E07480C0E07494C0E07422C0E07480C0E0121A40E58124FAF58180AB89
:2001C9007497C0E07422C0E07480C0E0121A4015811581158122AF83E58290000AF0EFA39C
:2001E900F090000AE0C0E0A3E0C0E074AAC0E07422C0E07480C0E0121A40E58124FBF581DA
:2002090022AF83E58290000CF0EFA3F090000CE0C0E0A3E0C0E074BAC0E07422C0E07480D5
:20022900C0E0121A40E58124FBF5812274FAC0E0E4C0E074C8C0E07422C0E07480C0E01242
:200249001A40E58124FBF58122D200D202020C16C200C202020C1630001090001174F9F06C
:200269007422A3F07480A3F0800E90001174FCF07422A3F07480A3F0900005E0FFBF011042
:2002890090000E74E7F07422A3F07480A3F0800E90000E74F2F07422A3F07480A3F0758293
:2002A9000D120DFE900011E0C0E0A3E0C0E0A3E0C0E07400C0E07423C0E07480C0E0121A99
:2002C90040E58124FAF58190000EE0C0E0A3E0C0E0A3E0C0E07415C0E07423C0E07480C063
:2002E900E0121A40E58124FAF581900005E0FFBF011F900000E0C0E0A3E0C0E07425C0E0F0
:200309007423C0E07480C0E0121A40E58124FBF581900002E0C0E0A3E0C0E07437C0E074AE
:2003290023C0E07480C0E0121A40E58124FBF581900004E0FF7E00C007C0067447C0E074A9
:2003490023C0E07480C0E0121A40E58124FBF581900007E0C0E0A3E0C0E07457C0E074239A
:20036900C0E07480C0E0121A40E58124FBF581900006E0FF7E00C007C0067481C0E074232D
:20038900C0E07480C0E0121A40E58124FBF58122120A57AE82AF83BEFE06BFFF030201C973
:2003A900EF30E70122C3EE9401EF6480948050078E828F830201DFC374FF9E748F8FF063CA
:2003C900F08095F050078E828F8302020A900004E0FD8E01EFFA3395E0FBFC900102EDF0A0
:2003E900E4A3F0E4A3F0E4A3F089828A838BF0ECC007C00612196FAA82AB83ACF0FDD00620
:20040900D007900014EAF0EBA3F0ECA3F0EDA3F0C3EA94FAEB9400EC9400ED9400500302F1
:200429000235900002EEF0EFA3F0C202120C16900014E0FCA3E0FDA3E0FEA3E0FF1CBCFFB8
:20044900091DBDFF051EBEFF011F8C828D838EF0EF120C1FA2009202020C16120A57AE82EC
:20046900AF83BEFE06BFFF030201C9EF30E70122C3EE9401EF6480948050078E828F830221
:2004890001DFC3743F9EE464808FF063F08095F050078E828F8302020A900002E0FDA3E047
:2004A900FF3395E0FCFB900102EEF0E4A3F0E4A3F0E4A3F08D828F838CF0EBC00612196FD7
:2004C900AB82AC83ADF0FFD006900018EBF0ECA3F0EDA3F0EFA3F0C3EB94FAEC9400ED9404
:2004E90000EF94005003020235900004EEF0C202120C16900018E0FCA3E0FDA3E0FEA3E072
:20050900FF1CBCFF091DBDFF051EBEFF011F8C828D838EF0EF120C1FA2009202020C1612E6
:200529000A57AE82AF8390001CEEF0EFA3F0EF33E433FD7030C3EE9401EF64809480500789
:200549008E828F830201DFC374FF9E748F8FF063F08095F050078E828F8302020A900000C9
:20056900EEF0EFA3F0ED6017BEFF04BFFF0122900000E0FEA3E0FF90001CEEF0EFA3F09080
:2005890000057401F0C202120C1690001CE0FEA3E0FF1EBEFF011F8E828F83120D30758281
:2005A900FF120D15A2009202020C16900005E4F0C202120C16758200120D15A200920202E1
:2005C9000C1690001E75F000120AAEAE82AF83BEFE06BFFF030201C9EF30E70122C2021263
:2005E9000C1690001EE0FCA3E0FDA3E0FEA3E08C828D838EF0120C9AA2009202020C161202
:200609000A57AE82E583FF20E731C3EE9401EF6480948050078E828F830201DFC374FF9E45
:20062900E464808FF063F08095F050078E828F8302020A900007EEF0EFA3F0900007E0FE1F
:20064900A3E0FF8E828F83020D79120A57AE82AF83BEFE06BFFF030201C9EF30E70122C355
:2006690074079EE464808FF063F08095F050078E828F8302020A8EF005F07E017F0080063B
:20068900EE2EFEEF33FFD5F0F7900006E0FFEE5F60167498C0E07423C0E07480C0E0121A7F
:2006A9004015811581158122900006EE4FF0900006E0F582020DC2900006E4F07582000229
:2006C9000DC2120A57AE82AF83BEFE06BFFF030201C9EF30E70122C374079EE464808FF0D2
:2006E90063F08095F050078E828F8302020A8EF005F07E017F008006EE2EFEEF33FFD5F01B
:20070900F7900006E0FFEE5F701674A4C0E07423C0E07480C0E0121A4015811581158122BE
:20072900EEF49000065FF0900006E0F582020DC2900006E0FF7E00C007C00674B1C0E07472
:2007490023C0E07480C0E0121A40E58124FBF58122120DDEAF827E00C007C00674C9C0E09A
:120769007423C0E07480C0E0121A40E58124FBF581222A
:20227B000D0953796E636F436D642D5633300D000D53796E636F3E20002573000941524728
:20229B00554D454E542052455155495245440009544F4F20534D414C4C202225642200098F
:2022BB00544F4F2042494720222564220009524F574C454E202A204E554D524F57204D553E
:2022DB005354204245203E3D202564004672656552756E5F4456005254535F4456004F4E12
:2022FB00004F464600094D616E63686F5F456E61626C65093D2025730D000944565F4D6F1A
:20231B00646509093D2025730D00094652756E5F436F756E74093D2025640D0009526F779C
:20233B005F4C656E09093D2025640D00094E756D5F526F7709093D2025640D000941646A12
:20235B0075737461626C6520436C6F636B206672657175656E63792064697669736F72094B
:20237B00093D25640D000941434443555F6F6E6F6666093D203058253032780D0009414CF6
:20239B005245414459204F4E0009414C5245414459204F4646000D0941434443555F6F6E38
:2023BB006F6666093D203058253032780D000D0941434443555F537461747573203D2030C7
:0723DB0058253032780D0097
:20077B000022AFF0AE83E582900049F0EEA3F0EFA3F0900049E0FDA3E0FEA3E0FF9000E30D
:20079B00749AF07424A3F07480A3F08D828E838FF0121583AD82AE83AFF0900022EDF0EEC9
:2007BB00A3F0EFA3F07E017F00900100EEF0EFA3F0900003C007C00612194FAC82AD83EC36
:2007DB002422FCED3400FD9000E3749AF07424A3F07480A3F090000075F000C005C00412EB
:2007FB001583A982AA83ABF0D004D005D006D0078C828D83E9F0EAA3F0EBA3F0E94A601068
:20081B000EBE00010FC3EE940BEF648094804099900100EEF0EFA3F090000312194FAE82A3
:20083B00AF83EE2422F582EF3400F583E4F0E4A3F0E4A3F09000467422F07400A3F0E4A379
:20085B00F022AFF0AE83E58290004EF0EEA3F0EFA3F090004EE0F50DA3E0F50EA3E0F50F96
:20087B0090004CE0FBA3E0FCA80DA90EAA0FC004C003C002C001C000120A188582088583ED
:20089B000985F00AD000D001D002D003D004E5084509700122E4F50BF50CC3E50B9BE50CA9
:2008BB0064808CF063F08095F0400302097FC000C001C002900100E50BF0E50CA3F09000D0
:2008DB000BC004C003C00012194FA982AA83D000E9250DF9EA350EF8AA0F898288838AF087
:2008FB0012225BFDA312225BFEA312225BFF8D828E838FF0C002C001C000122243AE82AFB8
:20091B0083D000D001D002898288838AF012225BF9A312225BF8A312225BFA9000EFE9F000
:20093B00E8A3F0EAA3F09000F2EEF0EFA3F0850882850983850AF0C002C001C0001216CAEE
:20095B00E5828583F0D000D001D002D003D004D002D001D00045F0600B050BE4B50B020535
:20097B000C0208B5C3E50B9BE50C64808CF063F08095F0506C900100E50BF0E50CA3F09059
:20099B00000BC004C003C002C001C00012194FAE82AF83D000D001D002D003D004EE28FE5D
:2009BB00EF39FF8A0574032EFEE43FFF8E828F838DF012225BFEA312225BFFC007C006C0F7
:2009DB0004C003C002C001C0008E828F83120029D000D001D002D003D004D006D0070208C4
:2009FB0089C008C009C00A749EC0E07424C0E07480C0E0121A40E58124FAF581229000461C
:200A1B00E0FDA3E0FEA3E0FF8D828E838FF012225BFAA312225BFBA312225BFCEA4B6015AE
:200A3B0090004674032DF0E43EA3F0EFA3F08A828B838CF02290000075F00022120A18AD4A
:200A5B0082AE83AFF0ED4E700490FFFE228D828E838FF012225BF582C007C006C0051217AB
:200A7B007BE582D005D006D007701FC005C006C007749EC0E07424C0E07480C0E0121A402C
:200A9B00E58124FAF58190FFFF228D828E838FF0021794AFF0AE83E582900051F0EEA3F0BC
:200ABB00EFA3F0120A18AD82AE83AFF0ED4E700490FFFE228D828E838FF012225BF582C0A3
:200ADB0007C006C00512177BE582D005D006D007701FC005C006C007749EC0E07424C0E011
:200AFB007480C0E0121A40E58124FAF58190FFFF22900051E0FAA3E0FBA3E0FC9000C174B4
:200B1B0054F07400A3F0E4A3F09000C4740AF0E4A3F08D828E838FF0C004C003C002120FB6
:200B3B00AAA982AD83AEF0FFD002D003D0048A828B838CF0E91218CAA3ED1218CAA3EE12E5
:200B5B0018CAA3EF1218CA900001227E007F00902498E493FC740193FDC3EE9CEF64808DF1
:200B7B00F063F08095F0400122900100EEF0EFA3F090000BC007C00612194FAC82AD83ECD2
:200B9B0024E8FCED3423FD74082CF582E43DF583E493F510A3E493F511A3E493F5128C826E
:200BBB008D83A3A3A3A3A3E493F8A3E493FAA3E493FB8C828D83E493F9A3E493FCA3E49385
:200BDB00FDC010C011C012C000C002C003C001C004C00574AAC0E07424C0E07480C0E0125F
:140BFB001A40E58124F4F581D006D0070EBE00010F020B6A98
:2023E200206E00202000B62480660BE52380B82480C924806002E52380CB2480DD2480997E
:2024020003E22380E02480FA24806404E22380FD2480162580B405E52380192580262580FD
:202422002805E22380292580482580CB05E223804B25807525800806E22380792580CF2529
:20244200805902E52380D22580E925805202E52380EC2580FC2580C006E523800026801000
:202462002680CB06E223801426803026805306E223803426805026803907E523805426805E
:202482006E26805A07E523807126808226808B00E523808526801000200A0D000957484190
:2024A200543F2022257322000D0920257325730909257300680068656C702C207468697366
:2024C200207374756666003F00676574204D616E63686F2053746174757300726C00736563
:2024E2007420526F775F4C656E096E203D203120746F2034303935006E7200736574204EDC
:20250200756D5F526F7773096E203D203120746F20363300727400736574205254535F4D25
:202522006F646500667200736574204672656552756E204D6F6465096E203D203120746F99
:20254200203430393500666E00736574204672616D652053657175656E6365204E756D6251
:202562006572096E203D203020746F20325E33322D3100636B640073657420746865206485
:20258200697669736F7220666F72207468652061646A75737461626C6520636C6F636B204A
:2025A2006F7574707574202835304D487A2F636B6429096E203D203120746F20323535201E
:2025C2002864656661756C743D3130290073740073746F702C2064697361626C65204D618A
:2025E2006E63686F757400676F00656E61626C65204D616E63686F75740064706100707790
:20260200722064697361626C6520616C6C00647075007077722064697361626C6520756E60
:202622006974096E203D203020746F2037006570750070777220656E61626C6520756E69A7
:202642007420096E203D203020746F203700706F66006765742041434443555F6F6E6F6650
:202662006620636E746C2062797465007073006765742041434443552073746174757300E6
:19268200726500526573657420616C6C20746F2064656661756C74730091
:200C0F000022A201929022300203C29122D29122AF82AE83ADF0FC90005BEFF0EEA3F0ED5A
:200C2F00A3F0ECA3F090005BE0FCA3E0FDA3E0FEA3E0FF900057ECF0EDA3F0EEA3F0EFA3F3
:200C4F00F075A010900057E0F58000C2B6D2B675A011900058E0F58000C2B6D2B675A012AA
:200C6F00900059E0F58000C2B6D2B675A01390005AE0F58000C2B6D2B675A00175800100B4
:200C8F00C2B6D2B675A0FF7580FF22AF82AE83ADF0FC90005FEFF0EEA3F0EDA3F0ECA3F0D2
:200CAF0090005FE0FCA3E0FDA3E0FEA3E0FF900057ECF0EDA3F0EEA3F0EFA3F075A01090DC
:200CCF000057E0F58000C2B6D2B675A011900058E0F58000C2B6D2B675A012900059E0F511
:200CEF008000C2B6D2B675A01390005AE0F58000C2B6D2B675A00175800400C2B6D2B6757A
:200D0F00A0FF7580FF22E582900063F075A002900063E0F58000C2B6D2B675A0FF7580FF5E
:200D2F0022AF83E582900064F0EFA3F0900064E0FEA3E0FF900057EEF0EFA3F075A0109033
:200D4F000057E0F58000C2B6D2B675A011900058E0F58000C2B6D2B675A00175800200C2A6
:200D6F00B6D2B675A0FF7580FF22AF83E582900066F0EFA3F0900066E0FEA3E0FF900057BE
:200D8F00EEF0EFA3F075A010900057E0F58000C2B6D2B675A011900058E0F58000C2B6D2D6
:200DAF00B675A00175800500C2B6D2B675A0FF7580FF22E582900068F075A020900068E0D8
:200DCF00F5800000C2B6D2B675A0FF7580FF2275A021C2B700000000900069E580F0D2B7DF
:0D0DEF0075A0FF7580FF900069E0F582227D
:02008400C203B5
:200DFC000022E5829000BCF010990280FB9000BCE0F59922C022C0E0C0F0C082C083C00792
:200E1C00C006C005C004C003C002C001C000C0D075D000109803020EC5AF99900131EFF023
:200E3C008F821219DBE582601FC299900131E0FF8F99900132E0FE90013204F0EE246AF5AC
:200E5C0082E43400F583EFF0900132E0FFC3648094D14006EF14900132F0900131E0FFBF7B
:200E7C00082E900132E0FEC3E464808EF063F08095F0501CC2998F99EE246AF582E4340024
:200E9C00F583E4F0900132E0FE14900132F08019BF0D16900132E0FF246AF582E43400F553
:200EBC0083E4F0900132F0D203D0D0D000D001D002D003D004D005D006D007D083D082D086
:200EDC00F0D0E0D02232759850539BEC439B0E438780759A64758F7FD2ACD2AF439B10D210
:020EFC00992239
:0226A6007200C0
:200EFE00E5829000BDF0FFE4BF200104F58222E5829000BEF0FFC3648094B0B3E433FE6019
:200F1E0010C374B98FF063F08095F0B3E433FF70047F0080027F018F8222E5829000BFF045
:200F3E00FFC3648094E1B3E433FE6010C374FA8FF063F08095F0B3E433FE7020C3EF64804A
:200F5E0094C1B3E433FE6010C374DA8FF063F08095F0B3E433FF70047F0080027F018F822F
:200F7E0022E5829000C0F0FFC3648094C1B3E433FE6010C374DA8FF063F08095F0B3E433A5
:200F9E00FF70047F0080027F018F8222AFF0AE83E5829000C6F0EEA3F0EFA3F09000C6E056
:200FBE00F537A3E0F538A3E0F539E4F52DF52EA837A938AA39888289838AF012225BFCA3FC
:200FDE00A882A983ECF5273395E0F528AC278C82C002C001C000120EFEE582D000D001D0B6
:200FFE000270D29000C9E8F0E9A3F0EAA3F0742DB52706E4B5280280028028752D01752EAF
:20101E0000888289838AF012225BFC9000C9740128F0E439A3F0EAA3F0ECF5273395E0F5DF
:20103E0028802D742BB52706E4B5280280028020888289838AF012225BFC9000C974012846
:20105E00F0E439A3F0EAA3F0ECF5273395E0F5289000C4E0FBA3E0FC4B6006BB105EBC0044
:20107E005B7430B52706E4B528028002804E9000C9E0FAA3E0FBA3E0FC8A828B838CF01286
:20109E00225BF9B978028003B9583174012AF8E43BF98C07888289838FF012225BF88827B7
:2010BE003395E0F5289000C974022AF0E43BA3F0ECA3F09000C47410F0E4A3F09000C4E0C0
:2010DE00FBA3E0FC4B701B7430B52706E4B52802800280047C0880027C0A9000C4ECF0E4B3
:2010FE00A3F09000C4E0FBA3E0FC8B33F5343395E0F535F5369000D7E533F0E534A3F0E5AD
:20111E0035A3F0E536A3F090FFFF74FFF5F0C004C00312147585822985832A85F02BF52C10
:20113E009000CCE533F0E534A3F0E535A3F0E536A3F090FFFF74FFF5F0121334AA82AD838B
:20115E00AEF0FFD003D0048A318D32E4F523F524F525F526F52FF5309000C9E0F53AA3E035
:20117E00F53BA3E0F53C85273D853D82C004C003120F0DE582D003D004600EE52724D0F51A
:20119E0027E52834FFF528803E853D82C004C003120F38E582D003D00470030212B6853DBE
:2011BE0082C004C003120F7FE582D003D0046005753D378003753D57AA3D7D00E527C39AB3
:2011DE00F527E5289DF528C3E5279BE52864808CF063F08095F040030212B6E53020E73A7C
:2011FE00C3E5299523E52A9524E52B9525E52C95264027E529B5232AE52AB52425E52BB5A1
:20121E002520E52CB5261BC3E5319527E53264808528F063F08095F05008752FFF7530FF40
:20123E008057752F01753000900102E533F0E534A3F0E535A3F0E536A3F085238285248377
:20125E008525F0E526C004C00312196F85822385832485F025F526D003D004AA27E528FD1D
:20127E003395E0FEFFEA2523F523ED3524F524EE3525F525EF3526F526853A82853B838532
:20129E003CF012225BFFA385823A85833BEFF5273395E0F528021184E53030E71574FFF53F
:2012BE0023F524F525F5269000D57422F0E4A3F0801BE52D452E6015C3E49523F523E495B8
:2012DE0024F524E49525F525E49526F5269000C1E0FDA3E0FEA3E0FFED4E602EE52F4530BE
:2012FE00600EE53A24FFFAE53B34FFFBAC3C8006AA37AB38AC398D828E838FF0EA1218CA44
:16131E00A3EB1218CAA3EC1218CA8523828524838525F0E5262297
:20133400AF82AE83ADF0FC9000D0EFF0EEA3F0EDA3F0ECA3F09000D4E4F09000D0E0FCA3C8
:20135400E0FDA3E0FEA3E0FF7B009000CCE0F51CA3E0F51DA3E0F51EA3E0F51F235401FA9D
:201374007074C003E51C251CF8E51D33F9E51E33FAE51F33FB9000CCE8F0E9A3F0EAA3F0BB
:20139400EBA3F09000CCE0F51CA3E0F51DA3E0F51EA3E0F51FC3EC951CED951DEE951EEF1D
:2013B400951FD0035027E51FC313F51FE51E13F51EE51D13F51DE51C13F51C9000CCF0E587
:2013D4001DA3F0E51EA3F0E51FA3F080090B9000D4EBF002135E9000D4E0FF9000D0E0FB58
:2013F400A3E0FCA3E0FDA3E0FE9000CCE0F51CA3E0F51DA3E0F51EA3E0F51FC3EB951CECFF
:20141400951DED951EEE951F40179000D0EBC3951CF0EC951DA3F0ED951EA3F0EE951FA315
:20143400F09000CCE0FBA3E0FCA3E0FDA3E0C313FEED13FDEC13FCEB13FB9000CCF0ECA34F
:20145400F0EDA3F0EEA3F08F061FEE708E9000D0E0FCA3E0FDA3E0FEA3E08C828D838EF08B
:011474002255
:20147500AF82AE83ADF0FC9000DBEFF0EEA3F0EDA3F0ECA3F09000DFE4F0E4A3F0E4A3F061
:20149500E4A3F09000D7E0FCA3E0FDA3E0FEA3E0FF751C209000DBE0F8A3E0F9A3E0FAA36A
:2014B500E0FB339204E828F8E933F9EA33FAEB33FB9000DBE8F0E9A3F0EAA3F0EBA3F090DC
:2014D50000DFE0F8A3E0F9A3E0FAA3E0FBE828F8E933F9EA33FAEB33FB9000DFE8F0E9A3A9
:2014F500F0EAA3F0EBA3F030041E9000DFE0F8A3E0F9A3E0FAA3E0FB9000DF740148F0E9D7
:20151500A3F0EAA3F0EBA3F09000DFE0F8A3E0F9A3E0FAA3E0FBC3E89CE99DEA9EEB9F404B
:20153500319000DFE8C39CF0E99DA3F0EA9EA3F0EB9FA3F09000DBE0F8A3E0F9A3E0FAA38F
:20155500E0FB9000DB740148F0E9A3F0EAA3F0EBA3F0D51C0280030214A99000DBE0FCA3ED
:0E157500E0FDA3E0FEA3E08C828D838EF022C9
:20158300AFF0AE83E5829000E6F0EEA3F0EFA3F09000E6E0FDA3E0FEA3E0FFED4E600B901C
:2015A30000E9EDF0EEA3F0EFA3F09000E9E0FDA3E0FEA3E0FFED4E7006900000F5F022902E
:2015C30000E9E0FDA3E0FEA3E0FF8D828E838FF012225BFF60319000E3E0FCA3E0FDA3E02F
:2015E300FE9000FCEFF08C828D838EF01218E5AD82AE83AFF0ED4E600E9000E9E02401F0BE
:20160300A3E03400F080B89000E9E0FDA3E0FEA3E0FF9000ECEDF0EEA3F0EFA3F09000E9BA
:20162300E0FDA3E0FEA3E0FF8D828E838FF012225BFF60649000E3E0FCA3E0FDA3E0FE90F6
:2016430000FCEFF08C828D838EF01218E5AD82AE83AFF0ED4E60339000E9E0FDA3E0FEA3BA
:20166300E0FF8D828E838FF0E41218CA9000E9E02401F0A3E03400F09000ECE0FDA3E0FE22
:20168300A3E0FF8D828E838FF0229000E9E02401F0A3E03400F080859000E9E4F0E4A3F026
:2016A300E4A3F09000ECE0FDA3E0FEA3E0FF8D828E838FF012225B60078D828E838FF022FE
:0716C30090000075F0002209
:2016CA00AFF0AE83E5829000F4F0EEA3F0EFA3F09000F2E0FEA3E0FF4E700490000022906C
:2016EA0000F4E0FBA3E0FCA3E0FD9000EFE0F8A3E0F9A3E0FA1EBEFF011FEE4F60418B82DC
:20170A008C838DF012225BF51C6034C006C007888289838AF012225BFFB51C028006D00724
:20172A00D006801BD007D0060BBB00010C9000F4EBF0ECA3F0EDA3F008B800B90980B69008
:20174A0000F4EBF0ECA3F0EDA3F08B828C838DF012225BFB3395E0FF888289838AF0122223
:11176A005BF83395E0FEEBC398FBEF9E8B82F5832200
:06005A00E4787FF6D8FDFA
:19177B00E5829000F7F0FFBF30004009EF24C640047582012275820022F0
:20179400AFF0AE83E5829000F8F0EEA3F0EFA3F07E007F009000F8E0FBA3E0FCA3E0FD8B99
:2017B400828C838DF012225BFA6039C374B98AF063F08095F04007EA648094B050268B8247
:2017D4008C838DF012225BFABA2D028017BA2B0280120BBB00010C9000F8EBF0ECA3F0ED45
:2017F400A3F080BB9000F8EBF0ECA3F0EDA3F08B008C018D028B828C838DF012225BFDE4F5
:20181400BD2D0104FCFB7003BD2B0E9000F8740128F0E439A3F0EAA3F09000F8E0FAA3E03E
:20183400FCA3E0FD8A828C838DF012225BF96066C3E9648094B0405E74B989F063F08095B2
:20185400F04053C003900100EEF0EFA3F090000AC005C004C003C002C00112194F85821340
:20187400858314D001D002D003D004D005E93395E0FBE924D0F9EB34FFFBE92513FEEB355F
:2018940014FF0ABA00010C9000F8EAF0ECA3F0EDA3F0D003808E9000F8EAF0ECA3F0EDA39D
:1618B400F0EB6009C3E49EFCE49FFD80048E048F058C828D83222F
:200038007902E94400601B7A019026A6783175A001E493F2A308B8000205A0D9F4DAF2756E
:02005800A0FF07
:1B18CA0020F71130F6138883A88220F509F6A8837583002280FEF280F5F0221D
:2018E500AFF0AE83E5829000FDF0EEA3F0EFA3F09000FCE0FF9000FDE0FCA3E0FDA3E0FE57
:201905008C828D838EF012225BFB6018EBB5070280120CBC00010D9000FDECF0EDA3F0EE3C
:20192500A3F080DC9000FDECF0EDA3F0EEA3F08C828D838EF012225BFBB507078C828D8342
:0A1945008EF02290000075F00022E1
:20194F00AA83AB828BF0900100E0A4F8A9F08AF0E0A429F98BF0A3E0A429F583888222224C
:20196F00A882A983AAF0FB88F0900102E0A4FCADF089F0E0A42DFDE435F0FE88F0A3E0A478
:20198F002DFDE5F03EFEE433FF89F0E0A42EFEE5F03FFF88F0A3E0A42EFEE5F03FFF8AF053
:2019AF00900102E0A42EFEE5F03FFF8BF0E0A42FFF8AF0A3E0A42FFF89F0A3E0A42FFF8870
:0C19CF00F0A3E0A42F8EF08D838C822208
:200060007800E84400600A790075A000E4F309D8FC7831E84401600C7902900000E4F0A36C
:04008000D8FCD9FAD5
:1919DB00E582900106F0FFBF20004009EF248140047582012275820022D3
:02002900E4737E
:2019F400C01B85811B120DFED01B22AFF0AE83E582900108F0EEA3F0EFA3F0900108E0FD74
:201A1400A3E0FEA3E0FF900107E0FC90011BE4F0E4A3F0E4A3F090011EEDF0EEA3F0EFA32E
:201A3400F0900121ECF09019F4021B42C01B85811BE51B24FBFF90011BE4F0E4A3F0E4A380
:201A5400F0E51B24FBF890011EE6F008E6A3F008E6A3F0900121EFF09019F4121B42D01B5C
:011A7400224F
:201A7500E582900117F0FF90010DE0C0E0A3E0C0E0A3E0C0E0121A8F800D90010BE0C0E08B
:201A9500A3E0C0E08F8222158115811581900115E02401F0A3E03400F022E582900118F0B5
:201AB5002430FF24C6500A74072FFF3005034307208F82021A75E582900119F0FFC4540F66
:201AD500F582C007121AAFD00753070F8F82021AAFE58290011AF0900110E0FCA3E0FDA31A
:201AF500E0FEA3E0FF900114E0FB90011AE0FA751C20EB2BFBEF235401F88B0149FBEC2C63
:201B1500FCED33FDEE33FEEF33FFC3EB9A4007EBC39AFB430401D51CD9900110ECF0EDA366
:201B3500F0EEA3F0EFA3F0900114EBF022AF83E582900122F0EFA3F0900122E0FEA3E0FF2A
:201B550090010BEEF0EFA3F090011BE0FDA3E0FEA3E0FF90010DEDF0EEA3F0EFA3F09001D9
:201B750015E4F0E4A3F090011EE0FDA3E0FEA3E0FF8D828E838FF012225BFC90011E740113
:201B95002DF0E43EA3F0EFA3F0EC7003022237BC2502800302222FC206C207C208C209C281
:201BB5000AC20BC20CC20D900124E4F0900125F090012674FFF090011EE0FDA3E0FEA3E0C3
:201BD500FF8D828E838FF012225BFBA3AD82AE8390011EEDF0EEA3F0EFA3F0900128EBF0A2
:201BF500BB25088B82121A75021B7B8B02BA3000403CEA24C64037900126E0FABAFF21C039
:201C150005C006C007900125E075F00AA42B24D0900125F0D007D006D00570A5D20780A11E
:201C3500EA75F00AA42B24D0900126F08093900128E0FBBB2E15900126E0FABAFF02800358
:201C5500021BD6900126E4F0021BD68B02BA61004010EA2485400B90012874DF5BF0D205FA
:201C75008002C205900128E0FBBB2002806DBB2B028063BB2D028059BB42028063BB430238
:201C95008068BB4403021ED5BB4603021EF7BB4803021BD6BB4903021ED5BB4A03021BD645
:201CB500BB4C028040BB4F03021EDFBB5003021E41BB53028070BB5403021BD6BB550302B1
:201CD5001EE7BB5803021EEFBB5A03021BD6021EFBD206021BD6D208021BD6D209021BD639
:201CF500D20B021BD6D20C021BD6300B14900121E0FF1F900121EFF08F01900128E7F080FE
:201D150019900121E0FF1F1F900121EFF08F01870609870719900128EEF0900128E0F582C1
:201D3500121A75021F07900121E0FF1F1F1F900121EFF08F0187050987060987071919903B
:201D55000110EDF0EEA3F0EFA3F08D828E838FF0122243AE82900126E0FFBFFF0590012627
:201D7500EEF0200631900125E0FFC3EE9F5027900125EFC39EF0900125E0FF8F051FED6032
:201D950010758220C007C006121A75D006D00780EA900125EFF0900126E0FFC00690011030
:201DB500E0FAA3E0FDA3E0FE8A828D838EF012225BF515D006E515603F8F051FC3E4648053
:201DD5008DF063F08095F0502FC006851582C007C006121A75D006D007900110E0FAA3E0DF
:201DF500FDA3E0FE0ABA00010D900110EAF0EDA3F0EEA3F0D00680A3200603021F07900127
:201E150025E0FFC3EE9F4003021F07900125EFC39EF0900125E0FF8F061FEE7003021F022B
:201E3500758220C007121A75D00780EB900121E0FE1E1E1E900121EEF08E018702098705A5
:201E55000987061919900110EAF0EDA3F0EEA3F0900112E0FEBE800040089001287443F0C2
:201E75008020BE600040089001287450F08013BE400040089001287449F0800690012874E8
:201E950058F0900128E0FEF582C006121A7575823A121A75758230121A75758278121A75C6
:201EB500D006BE4902800EBE50028009900111E0F582121ACB900110E0F582121ACB803276
:201ED500D20A900124740AF080289001247408F08020900124740AF080189001247410F0A1
:201EF5008010D20D800C8B82121A758005900125EFF0300D77900121E0FF1F1F1F1F9001B8
:201F150021EFF08F018703098705098706098707191919900110EBF0EDA3F0EEA3F0EFA376
:201F3500F0900110749BF07426A3F07480A3F0900110E0F516A3E0F517A3E0F51874012503
:201F550016FAE43517FBAF18900110EAF0EBA3F0EFA3F08516828517838518F012225BFF98
:201F75007003021B7B8F82121A7580C3900124E0F5167003021B7B300B4A900121E0FE1E6E
:201F9500900121EEF08E01E7FE3395E0FDFBFA900110EEF0EDA3F0EBA3F0EAA3F0300A0357
:201FB500022053900110E0FAA3E0A3E0A3E07B007D007E00900110EAF0EBA3F0EDA3F0EEB6
:201FD500A3F0807A300C2E900121E0FE1E1E1E1E900121EEF08E0187020987030987050914
:201FF5008706191919900110EAF0EBA3F0EDA3F0EEA3F08049900121E0FE1E1E900121EEC5
:20201500F08E01870509870619EE3395E0FBFA900110EDF0EEA3F0EBA3F0EAA3F0200A1E24
:20203500900110E0FAA3E0FBA3E0A3E07D007E00900110EAF0EBA3F0EDA3F0EEA3F0300A5D
:2020550030900110E0FAA3E0FBA3E0FDA3E0FE30E71DC3E49AFAE49BFBE49DFDE49EFE90CA
:202075000110EAF0EBA3F0EDA3F0EEA3F08002C20AD20E75192E751A01751500900114E454
:20209500F0851682121AE6200E23900114E0C4FA851982851A83E0FF4202851982851A83D1
:2020B500EAF0151974FFB51902151A800C900114E0FA851982851A83F00515B20E900110D9
:2020D500E0FAA3E0FBA3E0FEA3E0FFEA4B4E4F70AB90012FE519F0E51AA3F0900127E515B1
:2020F500F0900125E0FF70069001257401F0200727200624E51504FF900125E0FEC3EF9E3C
:202115005011758220C007C006121A75D006D0071E80EA900125EEF0300A1175822D121AA0
:2021350075900125E014900125F0802D900127E0FF602630081175822B121A75900125E059
:2021550014900125F0801230090F758220121A75900125E014900125F020062A900127E0E6
:20217500FF900125E0FE8E051EC3EF9D50363007047D3080027D208D82C007C006121A75ED
:20219500D006D00780E0900125E0FF900127E0FDC39F5009900125EFC39DF0800C90012501
:2021B500E4F08005900125EEF090012FE0FEA3E0FF900127E0FD8D031DEB603EB20E200E44
:2021D500140EBE00010F8E828F83E0C4540FFB900114F0800E8E828F83E0FB53030F9001C0
:2021F50014EBF0900114E0F582C007C006C005121AAFD005D006D00780BC200603021B7B33
:20221500900125E0FF8F061FEE7003021B7B758220C007121A75D00780EB8C82121A7502F5
:0E2235001B7B900115E0FEA3E08E82F5832254
:0B269B003C4E4F20464C4F41543E0087
:18224300AA82AB8312225B6003A380F8C3E5829AF582E5839BF5832244
:0D002B0075813D122277E5826003020026F8
:1C225B0020F71430F6148883A88220F507E6A88375830022E280F7E49322E02292
:04227700758200224A
:00000001FF
