:100A870025730009415247554D454E542052455153
:100A970055495245440009544F4F20534D414C4C42
:100AA70020222564220009544F4F20424947202223
:100AB7002564220009524F574C454E202A204E5597
:100AC7004D524F57204D555354204245203E3D200F
:100AD700256400094D616E63686F5F456E61626CE6
:100AE70065093D2025730D000944565F4D6F646508
:100AF70009093D2025730D00094652756E5F436F46
:100B0700756E74093D2025640D0009526F775F4C9F
:100B1700656E09093D2025640D00094E756D5F520C
:100B27006F7709093D2025640D000941434443556A
:100B37005F6F6E6F6666093D202523322E32580D92
:100B47000009414C5245414459204F4E0009414C40
:100B57005245414459204F4646000D0941434443FD
:100B6700555F6F6E6F6666093D202523322E32581A
:100B77000D000D0941434443555F53746174757308
:100B8700203D202523322E32580D000D0953796E52
:100B9700636F436D642D5631630D000D53796E639A
:100BA7006F3E20004672656552756E5F445600526F
:0D0BB70054535F4456004F4E004F46460019
:0317F20081000073
:1016430078057401F27801E4F208742FF208E4F2E9
:10165300087440F278067429F2D209C200121A23E0
:10166300D200121A4AC200121A4A7806E2FF7E001A
:101673007803E2FC08E2FD12039AEF24FFFFEE3445
:10168300FFFE3395E0FDFC1218007802E224FFFF11
:1016930018E234FFFE1218D07805E2FF1219CB7F4F
:1016A300007E007D007C00121848A2099200021AF5
:0116B3002313
:10155500120003D29978A574FFF208740BF208748F
:1015650092F27BFF7A0A79871200881210C178A55A
:1015750074FFF208740BF20874A2F27BFF7A0A7901
:1015850087120088121643300AFDC20AC2AC7BFEE0
:101595007A00790912121E7BFF7A07799790084B1A
:1015A500E493FC740193FD120BC4E47808F2D2AC09
:1015B50078A574FFF208740BF20874A2F27BFF7A27
:0815C5000A798712008880BF3B
:091A1A007BFF7A0A798A02008838
:1019DC007BFF7A0A799D78A5EEF208EFF202008877
:1019EC007BFF7A0A79AD78A5EEF208EFF202008857
:101956007FFA7E007BFF7A0A79BB78A5EEF208EF64
:04196600F202008801
:071A3C00D209D200021A23B7
:071A4300C209C200021A23D0
:100D9B00789674FF30090BF208740BF20874BDF2ED
:100DAB008009F208740BF20874C0F27805E27893AC
:100DBB00B4010D74FFF208740BF20874ABF2800BE4
:100DCB0074FFF208740BF20874B6F27F0D121A342A
:100DDB007896E2F908E2FA08E278A5C9F208EAF295
:100DEB0008E9F27BFF7A0A79DA1200887893E2F944
:100DFB0008E2FA08E278A5C9F208EAF208E9F27B00
:100E0B00FF7A0A79EF1200887805E2B401167BFFAE
:100E1B007A0A79FF7801E2FF08E278A5CFF208EFB2
:100E2B00F21200887BFF7A0B79117803E2FF08E25C
:100E3B0078A5CFF208EFF21200887BFF7A0B7921AD
:100E4B007806E2FF78A5E4F208EFF21200887BFF48
:100E5B007A0B79317800E2FF78A5E4F208EFF20221
:020E6B000088FD
:100F3D001217947893EEF208EFF2BEFF06BFFE0390
:100F4D00021A1A7893E2FE08E2FFC3EE64809480E1
:100F5D005002E1FEC3EF9401EE64809480500302D1
:100F6D0019DC7893E2FE08E2FFD394FFEE648094DF
:100F7D008F40030219EC7893E2FE08E2FFEE339501
:100F8D00E0FDFCC004A905AA06AB077806E2FFE464
:100F9D00FCFDFED0001203AC7895120426E47FFA16
:100FAD00FEFDFC7895E2FB08E2F908E2FA08E2CBD7
:100FBD00F8C31203FB50030219567893E2FF08E2BF
:100FCD007803CFF208EFF2C200121A237895E2FCF3
:100FDD0008E2FD08E2FE08E224FFFFEE34FFFEED1D
:100FED0034FFFDEC34FFFC121800A2099200121A16
:010FFD0023D0
:010FFE0022D0
:101000001217947893EEF208EFF2BEFF06BFFE03CC
:10101000021A1A7893E2FE08E2FFC3EE648094801D
:10102000500201C0C3EF9401EE648094805003022B
:1010300019DC7893E2FE08E2FFD3943FEE648094DB
:101040008040030219EC7803E2FE08E2FFEE3395DC
:10105000E0FDFCC004A905AA06AB077893E2FE08F0
:10106000E2FFEE3395E0FDFCD0001203AC78951260
:101070000426E47FFAFEFDFC7895E2FB08E2F9081D
:10108000E2FA08E2CBF8C31203FB500302195678C8
:101090009308E27806F2C200121A237895E2FC085F
:1010A000E2FD08E2FE08E224FFFFEE34FFFEED342D
:1010B000FFFDEC34FFFC121800A2099200121A2363
:0110C000220D
:1012B5001217947893EEF208EFF2C3EE64809480EF
:1012C500403318E2FE08E2FF9401EE6480948050FA
:1012D500030219DC7893E2FE08E2FFD394FFEE6483
:1012E50080948F40030219EC7893E2FF08E27801BD
:1012F500CFF208EFF27893E2FE08E2FFC3EE6480D6
:1013050094805015EFF47002EEF460317801E2FF3D
:1013150008E27893CFF208EFF278057401F2C20083
:10132500121A237894E224FFFF18E234FFFE121804
:0D133500D07FFF1219CBA2099200121A23DB
:011342002288
:10192C00E47805F2C200121A23E4FF1219CBA209C3
:05193C009200021A23D5
:101890007BFE7A0079951213437893EEF208EFF20B
:1018A000BEFF06BFFE03021A1AC37893E264809457
:1018B00080401CC200121A237895E2FC08E2FD0861
:0F18C000E2FE08E2FF121848A2099200121A2352
:0118CF0022F6
:1016B40078957401F21217947893EEF208EFF2BE63
:1016C400FF06BFFE03021A1A7893E2FE08E2FFC384
:1016D400EE648094804049D3EF9407EE6480948054
:1016E40040030219EC7895E2FF789308E2FEEFA834
:1016F40006088002C333D8FCFF7895F27800E25FD5
:10170400FFD3940040097BFF7A0B79480200887864
:1017140000E2FF7895E2FEEF4EFF7800F21219B96D
:0117240022A2
:081A2C00E47800F2FF0219B991
:1017250078957401F21217947893EEF208EFF2BEF1
:10173500FF06BFFE03021A1A7893E2FE08E2FFC312
:10174500EE648094804047D3EF9407EE64809480E4
:1017550040030219EC7895E2FF789308E2FEEFA8C2
:1017650006088002C333D8FCFF7895F27800E25F63
:10177500FF70097BFF7A0B79540200887800E2FF3D
:0E1785007895E2F4FEEF5EFF7800F21219B9DB
:011793002233
:10196A007BFF7A0B79617800E2FF78A5E4F208EF51
:04197A00F2020088ED
:1019A60012197E7BFF7A0B797978A5E4F208EFF2BB
:0319B600020088A4
:0817F500810772810800C10A9E
:081A34003099FDC2998F99223F
:0300230002117354
:10117300C0E0C0F0C083C08263A201C083C082C04C
:10118300D075D000C000C001C002C003C004C005B8
:10119300C006C007309862C2987807E599F2E2FF6B
:1011A300121A0B5013C2997807E2FFF59908E2FE71
:1011B30004F274092EF8EFF27808E2C3648094D144
:1011C3004003E214F27807E2FFB4081B08E2FED3FF
:1011D300648094804011C2998F9974092EF8E4F2C7
:1011E3007808E214F280127807E2B40D0C08E224C6
:1011F30009F8E4F27808F2D20AD007D006D005D075
:1012030004D003D002D001D000D0D0D082D08363E9
:0B121300A201D082D083D0F0D0E032E6
:10000300759850539BEC439B0E438780759A647598
:0C0013008F7FD2ACD2AF439B10D2992259
:1005EA00680068656C702C20746869732073747570
:1005FA006666003F00676574204D616E63686F2010
:10060A0053746174757300726C0073657420526F51
:10061A00775F4C656E096E203D203120746F20345F
:10062A00303935006E7200736574204E756D5F52F5
:10063A006F7773096E203D203120746F20363300A6
:10064A00727400736574205254535F4D6F64650071
:10065A00667200736574204672656552756E204D28
:10066A006F6465096E203D203120746F2034303963
:10067A003500666E00736574204672616D6520539D
:10068A00657175656E6365204E756D626572096E7A
:10069A00203D203020746F20325E33322D310073BA
:1006AA00740073746F702C2064697361626C6520C6
:1006BA004D616E63686F757400676F00656E616285
:1006CA006C65204D616E63686F75740064706100BB
:1006DA007077722064697361626C6520616C6C006A
:1006EA00647075007077722064697361626C65204A
:1006FA00756E6974096E203D203020746F203700B2
:10070A006570750070777220656E61626C65207520
:10071A006E697420096E203D203020746F203700E6
:10072A00706F66006765742041434443555F6F6E7E
:10073A006F666620636E746C2062797465007073EC
:10074A00006765742041434443552073746174758E
:10075A007300726500526573657420616C6C207455
:10076A006F2064656661756C747300200A0D000958
:10077A00574841543F2022257322000D0920257332
:10078A0025730909257300206E00202000FF05EA61
:10079A00FF10C1FF0794FF05ECFF05FDFF0D9BFF4E
:1007AA000794FF05FFFF0611FF0F3DFF0791FF06A4
:1007BA0014FF062EFF1000FF0791FF0631FF064ABD
:1007CA00FF192CFF0794FF064DFF065AFF12B5FFCB
:1007DA000791FF065DFF067CFF1890FF0791FF0651
:1007EA007FFF06A9FF1A43FF0794FF06ACFF06C363
:1007FA00FF1A3CFF0794FF06C6FF06D6FF1A2CFF16
:10080A000794FF06DAFF06EAFF1725FF0791FF069E
:10081A00EEFF070AFF16B4FF0791FF070EFF072A2C
:10082A00FF196AFF0794FF072EFF0748FF19A6FF63
:10083A000794FF074BFF075CFF1643FF0794FF0768
:03084A005F000F3D
:10121E00E47889F208F2788E74FFF2087407F20807
:10122E007475F2120CC8788908E2FF2401F218E2F4
:10123E003400F2EF75F003A4245EF8EBF208EAF244
:10124E0008E9F2788E74FFF2087407F2087475F2EA
:10125E007B007A007900120CC8788908E275F003D9
:10126E00A4245EF8EBF208EAF208E9F24A4B6018A1
:10127E00788AE22401F218E23400F2C308E2940BF9
:10128E0018E26480948040BB788908E275F003A46C
:10129E00245EF8E4F208F208F2785B74FEF2087449
:0612AE0000F208745EF27C
:0112B4002217
:100BC4007889EBF208EAF208E9F208ECF208EDF2AF
:100BD400E408F208F21219007890EBF208EAF2083D
:100BE400E9F24A700281C7E4788EF208F2788CE266
:100BF400FE08E2FFC3788FE29FEE6480F5F018E20E
:100C0400648095F050687889E2FB08E2FA08E2F91A
:100C1400788EE2FE08E2F5828E83740C120432129E
:100C2400046F1219417889E2FB08E2FA08E2F978C4
:100C34008EE2FC08E2F5828C83740C1204321204F6
:100C44006F7896EBF208EAF208E9F208EEF208EFA0
:100C5400F27890E2FB08E2FA08E2F91215CDEF60AF
:100C64000D788FE22401F218E23400F261F1788CFD
:100C7400E2FC08E2FD08E2FE08E2FFC39DEC6480AA
:100C8400F8EE64809850207C007D0C12039A7889D9
:100C9400E2FB08E2FA08E22FF9EA3EFA90000312B6
:100CA400046F12049F61D97890E2F908E2FA08E22D
:100CB40078A5C9F208EAF208E9F27BFF7A077979A4
:030CC40012008893
:010CC700220A
:10190000785BE2FB08E2FA08E2F912044FE94A6068
:1019100014785BE2FB0808E2F92403F218E2FA34D7
:0C19200000F202044F7B007A00790022E4
:101794001219007899EBF208EAF208E9F27899E272
:1017A400FB08E2FA08E24A4B70057EFF7FFE2278CE
:1017B40099E2FB08E2FA08E2F9120381FF1219FC2C
:1017C4007899E2401EF908E2FA08E278A5C9F2081D
:1017D400EAF208E9F27BFF7A0779791200887EFF42
:0D17E4007FFF22FB08E2FA08E2F9120E6D09
:0117F10022D5
:0A1343007899EBF208EAF208E9F2EB
:10134D00121900789CEBF208EAF208E9F2789CE2B7
:10135D00FB08E2FA08E24A4B70057EFF7FFE227819
:10136D009CE2FB08E2FA08E2F9120381FF1219FC74
:10137D004021789CE2F908E2FA08E278A5C9F20862
:10138D00EAF208E9F27BFF7A0779791200887EFF8D
:10139D007FFF2278A574FEF2087400F208749FF2A4
:1013AD0008740AF2789CE2FB08E2FA08E2F91208E6
:1013BD004D7899E2FB08E2FA08E2F912040C7E007E
:0213CD007F019E
:0113CF0022FB
:1010C100E47889F208F290084BE493FE740193FFEF
:1010D100C3788AE29FEE6480F5F018E2648095F0AF
:1010E10040022172E2FE08E2FF90079775F00C12B0
:1010F1000443EE75F00CA42583F583E493F97401A0
:1011010093FA74029378A5C9F208EAF208E9F29019
:10111100079D75F00CEF120443EE75F00CA42583C6
:10112100F583E493F9740193FA74029308C9F20800
:10113100EAF208E9F29007A075F00CEF120443EE11
:1011410075F00CA42583F583E493F9740193FA7483
:10115100029308C9F208EAF208E9F27BFF7A0779FB
:1011610085120088788AE22401F218E23400F20143
:01117100C7B6
:01117200225A
:051A4A00A200929022B1
:091A2300300003C29122D291228D
:10180000788212042675A0107885E2F58000C2B6B1
:10181000D2B675A01118E2F58000C2B6D2B675A096
:101820001218E2F58000C2B6D2B675A01318E2F520
:101830008000C2B6D2B675A00175800100C2B6D2D2
:08184000B675A0FF7580FF22C0
:10184800788212042675A0107885E2F58000C2B669
:10185800D2B675A01118E2F58000C2B6D2B675A04E
:101868001218E2F58000C2B6D2B675A01318E2F5D8
:101878008000C2B6D2B675A00175800400C2B6D287
:08188800B675A0FF7580FF2278
:1019CB0075A0028F8000C2B6D2B675A0FF7580FFDE
:0119DB0022E9
:1018D0007882EEF208EFF275A010E2F58000C2B651
:1018E000D2B675A01118E2F58000C2B6D2B675A0C6
:1018F0000175800200C2B6D2B675A0FF7580FF22C6
:1019B90075A0208F800000C2B6D2B675A0FF7580D1
:0219C900FF22FB
:10197E0075A021C2B700000000AF80D2B775A0FFDE
:03198E007580FF62
:011991002233
:030000000213D018
:0C13D000787FE4F6D8FD75812102141727
:10038100BB010689828A83E0225002E722BBFE027A
:09039100E32289828A83E49322AD
:10039A00EF8DF0A4A8F0CF8CF0A428CE8DF0A42E77
:0203AA00FE2231
:1003AC00E88FF0A4CC8BF0A42CFCE98EF0A42CFCF0
:1003BC008AF0EDA42CFCEA8EF0A4CDA8F08BF0A46E
:1003CC002DCC3825F0FDE98FF0A42CCD35F0FCEBCD
:1003DC008EF0A4FEA9F0EB8FF0A4CFC5F02ECD3992
:0F03EC00FEE43CFCEAA42DCE35F0FDE43CFC22FF
:1003FB00EB9FF5F0EA9E42F0E99D42F0E89C45F058
:01040B0022CE
:10040C00BB010789828A830204FE5005E9F80204C5
:0A041C00F2BBFE05E9F802042622F7
:0C042600ECF208EDF208EEF208EFF22212
:10043200F5F0C582A4C582C5F0C583A42583F583E2
:010442002297
:0C044300A42582F582E5F03583F58322C4
:10044F00BB010789828A8302052C5005E9F8020552
:10045F0023BBFE05E9F802053589828A8302055719
:10046F00BB010DE58229F582E5833AF58302052C60
:10047F005007E92582F8020523BBFE07E92582F81C
:10048F00020535E58229F582E5833AF583020557A2
:06049F008A838982E473E8
:10002600E50824A5F8E205082278A230070278A59B
:10003600E475F00112053E0203812000EB7F2ED20B
:10004600008018EF540F2490D43440D4FF30040BB2
:10005600EF24BFB41A0050032461FFE509600215BE
:1000660009050CE50C7002050B30070D78A2E47546
:10007600F00112053EEF0204D2021A347403D207CD
:100086008003E4C207F50878A212054EE4F509F5E7
:100096000BF50CE50960077F2012006180F5750AF3
:1000A600FFC201C200C202C203C205C206C20812D2
:1000B600002FFF700D3007057F00120072AF0CAEE7
:1000C6000B22B4255FC2D5C20412002FFF24D0B480
:1000D6000A00501A75F00A780930D50508B6FF01EE
:1000E60006C6A426F620D5047002D20380D924CFF2
:1000F600B41A00EF5004C2E5D204020271D20180A4
:10010600C6D20080C0D20280BCD2D580BAD20580C9
:10011600B47F201200612002077401B5090040F186
:10012600120026FF120061020099D208D2068095BD
:10013600120026FB120026FA120026F94A4B700618
:1001460079427A037BFF20022EE509602A7E008E23
:10015600827583001204A560060EEE650A70F0C271
:10016600D5EBC0E0EAC0E0E9C0E0EE1202B8D0E0AC
:10017600F9D0E0FAD0E0FB120381FF60AAEBC0E001
:10018600EAC0E0E9C0E0120061D0E02401F9D0E065
:100196003400FAD0E0FBE50A0460DCD50AD9808792
:1001A6007BFF7A0279B4D202809C791080027908AA
:1001B600C206C2088008D2D5790A8004790AC2D557
:1001C600E50A047002F50AE4FAFDFEFF120026FCB9
:1001D6007B08200113120026FD7B1030000A120056
:1001E60026FE120026FF7B20EC3382D592D55013D3
:1001F600C3E43000069FFFE49EFEE42001039DFD5C
:10020600E49CFCE4CBF8C201EC700CCFCECDCCE87C
:1002160024F8F870F38017C3EF33FFEE33FEED33A7
:10022600FDEC33FCEB33FB994002FB0FD8E9EB30D6
:100236000105F8D0E0C448B201C0E00AEC4D4E4FCB
:1002460078207B0070C2EAB50A0040BCC0E012020A
:10025600BAD0F0D0E0200104C4C0E0C4B201C0F0BE
:1002660012004AD0F0D5F0EB0200991205B2013621
:100276005301B05801074C01034201B44F01BC447D
:1002860001BC49011C4301C25501A64601A6450110
:01029600A6C1
:1002970047036250010B2D010F2E01322B0113234F
:1002A700013020034B2A00CB480000012A3F3F3F83
:1002B70000790AA2D5200314300509B910020404F5
:1002C700B9080104A2D52006025001042002689251
:1002D70002B509005034C0E07F203003197F30A2F7
:1002E7000272067205500F120311C202C206C2053E
:1002F700C2087F30800F300503E9C0E0120061308B
:100307000503D0E0F9D0E0B509CC3005177F30B947
:10031700100C1200617F583004077F788003B908FA
:10032700031200613002057F2D0200617F20200843
:10033700F87F2B2006F322920280CF286E756C6C13
:100347002900D2011200263001F8C201780930D500
:100357000108F60200CB2D5043495812002624030A
:10036700B405004001E490035D93120052743A1201
:0A0377000052D2037509040201B020
:0F19FC00EFC394304007EF943A50028001C322AA
:0F1A0B00EFC394204007EF947F50028001C32265
:1015CD007893EBF208EAF208E9F27896E2FB08E28A
:1015DD00FA08E2F9120381FE7893E2FB08E2FA08B9
:1015ED00E2F9120381FF6E702EEF6010789908E218
:1015FD0024FFFDF218E234FFF24D70037F002278D4
:10160D0095E22401F218E23400F27898E22401F216
:10161D0018E23400F280B37893E2FB08E2FA08E2B4
:10162D00F9120381FFD3EE6480F8EF6480984003D4
:06163D007F01227FFF2265
:10194100E4FFFE120381600C0FEF70010E09E970D4
:05195100F20A80EF2204
:100CC800788BEBF208EAF208E9F2788BE2FB08E2AB
:100CD800FA08E24A4B70137886E2F908E2FA08E269
:100CE800788BC9F208EAF208E9F2788BE2FB08E2AD
:100CF800FA08E24A4B7004FBFAF922788EE2F90806
:100D0800E2FA08E27894C9F208EAF208E9F2788B84
:100D1800E2FB08E2FA08E2F91214D9788DE22FF220
:100D280018E23EF218E2FB08E2FA08E2F91203813F
:100D38007011F97886C9F208F208E9F27B007A00A6
:100D4800790022788EE2F908E2FA08E27894C9F28A
:100D580008EAF208E9F2788BE2FB08E2FA08E2F91D
:100D680012145C7886EBF208EAF208E9F24A4B6062
:100D7800177886E2FB08E2FA08E2F9E41204D2E204
:100D88002401F218E23400F2788BE2FB08E2FA0858
:030D9800E2F9225B
:10084D0078A2EBF208EAF208E9F278AB12050A0099
:10085D00000000E478A9F208F278A5E2FB08E2FABC
:10086D0008E2F9EA494B601F78A2E2FB08E2FA08B8
:10087D00E2F9EBC0E0EAC0E0E9C0E008E2FB08E223
:10088D00FA08E2F912056378A2E2FB0808E2F924FE
:10089D0001F218E2FA3400F212038178AFF2E2FFAE
:1008AD00C394094006EFD3940D40DCEF642060D76C
:1008BD00EFB42D0B78A9E2F208E24403F2801C7824
:1008CD00AFE2B42B0B78A9E2F208E24401F2800BFF
:1008DD0078A4E224FFF218E234FFF278A8E2600473
:1008ED006410704D78A2E2FB08E2FA08E2F91203F7
:1008FD00816430600A78A8E27037740AF280329011
:10090D0000011204A5FF64786004EFB4581B78A9A8
:10091D00E2F208E24401F278A87410F278A4E2241D
:10092D0002F218E23400F2800878A8E2700374082D
:10093D00F278A2E2FB0808E2F92401F218E2FA3497
:10094D0000F212038178AFF2E2FFC39461400AEF27
:10095D00D3947A5004EF54DFF278AFE224D0F2E270
:10096D00FFC3940A400EEF94115003020A1978AF99
:10097D00E224F9F278A8E2FB78AFE2D39B400302C0
:10098D000A1978A9E2F208E24401F208E2FC08E251
:10099D00FD08E2FE08E2FF78B0120426EBFF7E00B0
:1009AD00E4FCFD78ABE2FB08E2F908E2FA08E2CBE1
:1009BD00F81203ACECC0E0C9EDC9CAEECACBEFCB5F
:1009CD0078AFE2FFE4FCFDFED0E0F8EB2FFFEE3A4E
:1009DD00FEED39FDEC38FC78AB12042678ABE2FC69
:1009ED0008E2FD08E2FE08E2FF78B0E2FB08E2F95A
:1009FD0008E2FA08E2CBF8D31203FB500302093EDA
:100A0D0078A9E2F208E24404F202093E78AAE22053
:100A1D00E003E4804078A5E2FB08E2FA08E2F9EA97
:100A2D00494B602578A2E2FB08E2FA08E224FFF9BF
:100A3D00EA34FFFAEBC0E0EAC0E0E9C0E008E2FB0F
:100A4D0008E2FA08E2F912056378A9E2FA08E2FB76
:100A5D0030E20774FFFFFEFDFC22EB78AB30E10EB8
:100A6D00E2FC08E2FD08E2FE08E2FF0204E4E2FC1B
:0A0A7D0008E2FD08E2FE08E2FF2295
:100E6D00789CEBF208EAF208E9F2789CE2FB08E2E2
:100E7D00FA08E2F9120381FF121992500D789EE2E1
:100E8D002401F218E23400F280E0D200789CE2FBFB
:100E9D0008E2FA08E2F9120381FF642B6004EFB453
:100EAD002D1E789CE2FB0808E2F92401F218E2FA03
:100EBD003400F2120381642D6003D38001C39200CC
:100ECD00E4789FF208F2789CE2FB08E2FA08E2F976
:100EDD00120381FF1219FC503C789CE2FB08E2FAE8
:100EED0008E2F9120381FF3395E0FEEF24D0FBEE0B
:100EFD0034FFFA08E2FE08E2FF7C007D0A12039A35
:100F0D00EF2B78A0F2EE3A18F218E22401F218E273
:100F1D003400F280B1300009789FE2FE08E2FF80D4
:100F2D000E789FE2FE08E2FFC3E49FFFE49EFE22DF
:1013DC00021555E493A3F8E493A34003F68001F2BD
:1013EC0008DFF48029E493A3F85407240CC8C33312
:1013FC00C4540F4420C8834004F456800146F6DFE1
:10140C00E4800B01020408102040809017F2E47E67
:10141C00019360BCA3FF543F30E509541FFEE493D5
:10142C00A360010ECF54C025E060A840B8E493A39C
:10143C00FAE493A3F8E493A3C8C582C8CAC583CAC7
:10144C00F0A3C8C582C8CAC583CADFE9DEE780BE7F
:0117FD0000EB
:1004A500BB010CE58229F582E5833AF583E022500C
:1004B50006E92582F8E622BBFE06E92582F8E22256
:0D04C500E58229F582E5833AF583E4932270
:1004D200BB010689828A83F0225002F722BBFE0109
:0204E200F32203
:0E04E400C3E49FFFE49EFEE49DFDE49CFC2229
:0C04F200ECF608EDF608EEF608EFF62236
:0C04FE00ECF0A3EDF0A3EEF0A3EFF02271
:10050A00D083D082E493F208740193F208740293C0
:09051A00F208740393F2740473F7
:09052300E6FB08E6FA08E6F922FD
:09052C00E0FBA3E0FAA3E0F922D0
:09053500E2FB08E2FA08E2F922F7
:10053E00FAE2FB0808E2F925F0F218E2CA3AF222D2
:09054E00EBF208EAF208E9F222DE
:0C055700E493FB740193FA740293F92200
:10056300BB011A89828A83D0F0D0E0F8D0E0F9D0B9
:10057300E0FAD0E0FBE8C0E0C0F00205E15016E984
:10058300F8D083D082D0E0F9D0E0FAD0E0FBC0828B
:10059300C0830205D8BBFE16E9F8D083D082D0E031
:0F05A300F9D0E0FAD0E0FBC082C08302054E22FF
:1005B200D083D082F8E4937012740193700DA3A3D8
:1005C20093F8740193F5828883E4737402936860EC
:0605D200EFA3A3A380DFEC
:10199200EFC394094005EF940E4004EFB42003D343
:0419A2008001C322DB
:1014D9007891EBF208EAF208E9F2E47897F208F277
:1014E900E4FEFF7894E2FB08E2FA08E2F98F828EC3
:1014F900831204A5FD60177891E2FB08E2FA08E27D
:10150900F91203816D60070FBF00010E80D5789431
:10151900E2FB08E2FA08E2F98F828E831204A570D1
:101529000280217898E22401F218E23400F27891DD
:10153900E2FB0808E22401F9F218E23400FAF21297
:0C1549000381709C7897E2FE08E2FF220C
:10145C007891EBF208EAF208E9F27894E2F908E202
:10146C00FA08E208C9F208EAF208E9F27897E2FB16
:10147C0008E2FA08E2F9120381FF601D7891E2FBA1
:10148C0008E2FA08E2F91203816F600D7899E22400
:10149C0001F218E23400F280D37897E2FB08E2FA0A
:1014AC0008E2F9120381600B7891E2FB08E2FA087A
:1014BC00E2F9227891E2FB0808E2F92401F218E241
:0D14CC00FA3400F21203817091FBFAF9224C
:0905D800EBF608EAF608E9F62248
:0905E100EBF0A3EAF0A3E9F0221B
:00000001FF
