:100AED0025730009415247554D454E5420524551ED
:100AFD0055495245440009544F4F20534D414C4CDC
:100B0D0020222564220009544F4F204249472022BC
:100B1D002564220009524F574C454E202A204E5530
:100B2D004D524F57204D555354204245203E3D20A8
:100B3D00256400094D616E63686F5F456E61626C7F
:100B4D0065093D2025730D000944565F4D6F6465A1
:100B5D0009093D2025730D00094652756E5F436FDF
:100B6D00756E74093D2025640D0009526F775F4C39
:100B7D00656E09093D2025640D00094E756D5F52A6
:100B8D006F7709093D2025640D000941646A75736D
:100B9D007461626C6520436C6F636B206672657166
:100BAD0075656E63792064697669736F7209093DA5
:100BBD0025640D000941434443555F6F6E6F6666B2
:100BCD00093D202523322E32580D0009414C524546
:100BDD00414459204F4E0009414C52454144592042
:100BED004F4646000D0941434443555F6F6E6F6696
:100BFD0066093D202523322E32580D000D09414343
:100C0D004443555F537461747573203D2025233221
:100C1D002E32580D000D0953796E636F436D642D9F
:100C2D005632300D000D53796E636F3E20004672C3
:100C3D00656552756E5F4456005254535F445600BD
:070C4D004F4E004F46460028
:031B52008100000F
:10151E0078077401F27801E4F2087478F27805E441
:10152E00F2087435F278087421F2D2097803E4F2E5
:10153E0008740AF2C200121B67D2001217FAC20018
:10154E001217FA7808E2FF7E007805E2FC08E2FD49
:10155E00120663EF24FFFFEE34FFFE3395E0FDFC31
:10156E0012191D7802E224FFFF18E234FFFE121951
:10157E00ED7803E2FE08E2FF121A1D7807E2FF1271
:10158E001B037F007E007D007C00121965A209926C
:04159E0000021B67C5
:10169B00120003D29978A774FFF208740CF2087445
:1016AB0022F27BFF7A0A79ED12008812118378A758
:1016BB0074FFF208740CF2087432F27BFF7A0A7929
:1016CB00ED12008812151E300AFDC20AC2AC7BFE59
:1016DB007A00790B1212E07BFF7A05798890064825
:1016EB00E493FC740193FD120C54E4780AF2D2AC2F
:1016FB0078A774FFF208740CF2087432F27BFF7A4D
:08170B000A79ED12008880BF8D
:091B5E007BFF7A0A79F00200888D
:101B14007BFF7A0B790378A7EEF208EFF2020088D4
:101B24007BFF7A0B791378A7EEF208EFF2020088B4
:101A8E007FFA7E007BFF7A0B792178A7EEF208EFC2
:041A9E00F2020088C8
:071B7800D209D200021B6735
:071B7F00C209C200021B674E
:100D5800789874FF30090BF208740CF208744DF29D
:100D68008009F208740CF2087450F27807E278955A
:100D7800B4010D74FFF208740CF208743BF2800B96
:100D880074FFF208740CF2087446F27F0D121B709F
:100D98007898E2F908E2FA08E278A7C9F208EAF2D4
:100DA80008E9F27BFF7A0B79401200887895E2F91E
:100DB80008E2FA08E278A7C9F208EAF208E9F27B41
:100DC800FF7A0B79551200887807E2B401167BFF89
:100DD8007A0B79657801E2FF08E278A7CFF208EF8D
:100DE800F21200887BFF7A0B79777805E2FF08E238
:100DF80078A7CFF208EFF21200887BFF7A0B798789
:100E08007808E2FF78A7E4F208EFF21200887BFF87
:100E18007A0B79977803E2FF08E278A7CFF208EF18
:100E2800F21200887BFF7A0B79C17800E2FF78A77D
:080E3800E4F208EFF202008869
:1010000012186F7895EEF208EFF2BEFF06BFFE03EE
:10101000021B5E7895E2FE08E2FFC3EE64809480D6
:10102000500201C1C3EF9401EE648094805003022A
:101030001B147895E2FE08E2FFD394FFEE648094DF
:101040008F4003021B247895E2FE08E2FFEE339501
:10105000E0FDFCC004A905AA06AB077808E2FFE49E
:10106000FCFDFED00012067578971206EFE47FFAB9
:10107000FEFDFC7897E2FB08E2F908E2FA08E2CB11
:10108000F8C31206C45003021A8E7895E2FF08E2F4
:101090007805CFF208EFF2C200121B677897E2FCE6
:1010A00008E2FD08E2FE08E224FFFFEE34FFFEED59
:1010B00034FFFDEC34FFFC12191DA2099200121B33
:0110C00067C8
:0110C100220C
:1010C20012186F7895EEF208EFF2BEFF06BFFE032C
:1010D200021B5E7895E2FE08E2FFC3EE6480948014
:1010E20050022182C3EF9401EE6480948050030287
:1010F2001B147895E2FE08E2FFD3943FEE648094DD
:10110200804003021B247805E2FE08E2FFEE3395DD
:10111200E0FDFCC004A905AA06AB077895E2FE082B
:10112200E2FFEE3395E0FDFCD000120675789712CF
:1011320006EFE47FFAFEFDFC7897E2FB08E2F9088D
:10114200E2FA08E2CBF8C31206C45003021A8E7800
:101152009508E27808F2C200121B677897E2FC0851
:10116200E2FD08E2FE08E224FFFFEE34FFFEED346A
:10117200FFFDEC34FFFC12191DA2099200121B673D
:01118200224A
:1013770012186F7895EEF208EFF2C3EE648094804E
:10138700403318E2FE08E2FF9401EE648094805037
:1013970003021B147895E2FE08E2FFD394FFEE6484
:1013A70080948F4003021B247895E2FF08E27801BE
:1013B700CFF208EFF27895E2FE08E2FFC3EE648011
:1013C70094805015EFF47002EEF460317801E2FF7B
:1013D70008E27895CFF208EFF278077401F2C200BD
:1013E700121B677896E224FFFF18E234FFFE1219FA
:0D13F700ED7FFF121B03A2099200121B677D
:0114040022C5
:100FE300E47807F2C200121B67E4FF121B03A20995
:050FF3009200021B67E3
:1019AD007BFE7A0079971214057895EEF208EFF226
:1019BD00BEFF06BFFE03021B5EC37895E2648094F2
:1019CD0080401CC200121B677897E2FC08E2FD08FC
:0F19DD00E2FE08E2FF121965A2099200121B67D1
:0119EC0022D8
:1018CD0012186F7897EEF208EFF2C3EE64809480F1
:1018DD00403318E2FE08E2FF9401EE6480948050DC
:1018ED0003021B147897E2FE08E2FFD394FFEE6427
:1018FD008094804003021B247897E2FF08E278036E
:0F190D00CFF208EFF27803E2FE08E2FF121A1D94
:01191C0022A8
:1017890078977401F212186F7895EEF208EFF2BEAD
:10179900FF06BFFE03021B5E7895E2FE08E2FFC367
:1017A900EE648094804049D3EF9407EE648094807E
:1017B9004003021B247897E2FF789508E2FEEFA820
:1017C90006088002C333D8FCFF7897F27800E25FFD
:1017D900FFD3940040097BFF7A0B79D802008878FF
:1017E90000E2FF7897E2FEEF4EFF7800F2121AF15D
:0117F90022CD
:080FF800E47800F2FF021AF197
:1018000078977401F212186F7895EEF208EFF2BE35
:10181000FF06BFFE03021B5E7895E2FE08E2FFC3EF
:10182000EE648094804047D3EF9407EE6480948008
:101830004003021B247897E2FF789508E2FEEFA8A8
:1018400006088002C333D8FCFF7897F27800E25F85
:10185000FF70097BFF7A0B79E40200887800E2FFD1
:0E1860007897E2F4FEEF5EFF7800F2121AF1C4
:01186E002257
:101AA2007BFF7A0B79F17800E2FF78A7E4F208EF86
:041AB200F2020088B4
:101ADE00121AB67BFF7A0C790978A7E4F208EFF2B6
:031AEE000200886B
:081B5500810972810A00C10A36
:081B70003099FDC2998F992202
:0300230002123591
:10123500C0E0C0F0C083C08263A201C083C082C089
:10124500D075D000C000C001C002C003C004C005F5
:10125500C006C007309862C2987809E599F2E2FFA6
:10126500121B435013C2997809E2FFF59908E2FE73
:1012750004F2740B2EF8EFF2780AE2C3648094D17D
:101285004003E214F27809E2FFB4081B08E2FED33A
:10129500648094804011C2998F99740B2EF8E4F202
:1012A500780AE214F280127809E2B40D0C08E224FF
:1012B5000BF8E4F2780AF2D20AD007D006D005D0AE
:1012C50004D003D002D001D000D0D0D082D0836327
:0B12D500A201D082D083D0F0D0E03224
:10000300759850539BEC439B0E438780759A647598
:0C0013008F7FD2ACD2AF439B10D2992259
:10038100680068656C702C207468697320737475DB
:100391006666003F00676574204D616E63686F207B
:1003A10053746174757300726C0073657420526FBD
:1003B100775F4C656E096E203D203120746F2034CB
:1003C100303935006E7200736574204E756D5F5261
:1003D1006F7773096E203D203120746F2036330012
:1003E100727400736574205254535F4D6F646500DD
:1003F100667200736574204672656552756E204D94
:100401006F6465096E203D203120746F20343039CE
:100411003500666E00736574204672616D65205308
:10042100657175656E6365204E756D626572096EE5
:10043100203D203020746F20325E33322D31006335
:100441006B640073657420746865206469766973F0
:100451006F7220666F72207468652061646A7573BB
:100461007461626C6520636C6F636B206F7574706F
:100471007574202835304D487A2F636B6429096ED5
:10048100203D203120746F20323535202864656687
:1004910061756C743D3130290073740073746F7031
:1004A1002C2064697361626C65204D616E63686FB5
:1004B100757400676F00656E61626C65204D616ED9
:1004C10063686F757400647061007077722064698D
:1004D1007361626C6520616C6C006470750070778B
:1004E100722064697361626C6520756E6974096E4E
:1004F100203D203020746F203700657075007077C3
:100501007220656E61626C6520756E697420096E7A
:10051100203D203020746F203700706F66006765C2
:10052100742041434443555F6F6E6F666620636E6E
:10053100746C206279746500707300676574204182
:10054100434443552073746174757300726500529E
:100551006573657420616C6C20746F2064656661DD
:10056100756C747300200A0D0009574841543F20EF
:1005710022257322000D092025732573090925738E
:1005810000206E00202000FF0381FF1183FF0585FD
:10059100FF0383FF0394FF0D58FF0585FF0396FFBB
:1005A10003A8FF1000FF0582FF03ABFF03C5FF1087
:1005B100C2FF0582FF03C8FF03E1FF0FE3FF0585CB
:1005C100FF03E4FF03F1FF1377FF0582FF03F4FF4D
:1005D1000413FF19ADFF0582FF0416FF0440FF1845
:1005E100CDFF0582FF0444FF049AFF1B7FFF0585B1
:1005F100FF049DFF04B4FF1B78FF0585FF04B7FFCF
:1006010004C7FF0FF8FF0585FF04CBFF04DBFF18CC
:1006110000FF0582FF04DFFF04FBFF1789FF05824E
:10062100FF04FFFF051BFF1AA2FF0585FF051FFF42
:100631000539FF1ADEFF0585FF053CFF054DFF1556
:090641001EFF0585FF05500010A5
:1012E000E4788BF208F2789074FFF2087405F20843
:1012F0007466F2120E40788B08E2FF2401F218E2C5
:101300003400F2EF75F003A42460F8EBF208EAF27F
:1013100008E9F2789074FFF2087405F2087466F236
:101320007B007A007900120E40788B08E275F0039A
:10133000A42460F8EBF208EAF208E9F24A4B6018DC
:10134000788CE22401F218E23400F2C308E2940B34
:1013500018E26480948040BB788B08E275F003A4A7
:101360002460F8E4F208F208F2785D74FEF2087482
:0613700000F2087460F2B7
:011376002254
:100C5400788BEBF208EAF208E9F208ECF208EDF21C
:100C6400E408F208F2121A4D7892EBF208EAF2085C
:100C7400E9F24A7002A157E47890F208F2788EE221
:100C8400FE08E2FFC37891E29FEE6480F5F018E27B
:100C9400648095F05068788BE2FB08E2FA08E2F988
:100CA4007890E2FE08E2F5828E83740C1206FB1241
:100CB4000738121A79788BE2FB08E2FA08E2F9782D
:100CC40090E2FC08E2F5828C83740C1206FB120796
:100CD400387898EBF208EAF208E9F208EEF208EF45
:100CE400F27892E2FB08E2FA08E2F9121713EF60D5
:100CF4000D7891E22401F218E23400F28181788EB9
:100D0400E2FC08E2FD08E2FE08E2FFC39DEC648019
:100D1400F8EE64809850207C007D0C120663788B7A
:100D2400E2FB08E2FA08E22FF9EA3EFA9000031225
:100D3400073812076881697892E2F908E2FA08E252
:100D440078A7C9F208EAF208E9F27BFF7A05796A22
:030D540012008802
:010D57002279
:101A4D00785DE2FB08E2FA08E2F9120718E94A604C
:101A5D0014785DE2FB0808E2F92403F218E2FA3487
:0C1A6D0000F20207187B007A00790022CA
:10186F00121A4D789BEBF208EAF208E9F2789BE244
:10187F00FB08E2FA08E24A4B70057EFF7FFE2278F2
:10188F009BE2FB08E2FA08E2F912064AFF121B3448
:10189F00789BE2401EF908E2FA08E278A7C9F2083D
:1018AF00EAF208E9F27BFF7A05796A1200887EFF77
:0D18BF007FFF22FB08E2FA08E2F9120F1386
:0118CC0022F9
:0A140500789BEBF208EAF208E9F226
:10140F00121A4D789EEBF208EAF208E9F2789EE2A2
:10141F00FB08E2FA08E24A4B70057EFF7FFE227856
:10142F009EE2FB08E2FA08E2F912064AFF121B34A9
:10143F004021789EE2F908E2FA08E278A7C9F2089B
:10144F00EAF208E9F27BFF7A05796A1200887EFFDB
:10145F007FFF2278A774FEF2087400F20874A1F2DD
:10146F0008740AF2789EE2FB08E2FA08E2F9120821
:10147F00B3789BE2FB08E2FA08E2F91206D57E0088
:02148F007F01DB
:011491002238
:10118300E4788BF208F2900648E493FE740193FF2F
:10119300C3788CE29FEE6480F5F018E2648095F0EA
:1011A30040024134E2FE08E2FF90058875F00C121C
:1011B300070CEE75F00CA42583F583E493F9740111
:1011C30093FA74029378A7C9F208EAF208E9F29055
:1011D300058E75F00CEF12070CEE75F00CA4258349
:1011E300F583E493F9740193FA74029308C9F2083E
:1011F300EAF208E9F290059175F00CEF12070CEE94
:1012030075F00CA42583F583E493F9740193FA74C0
:10121300029308C9F208EAF208E9F27BFF7A05793A
:1012230076120088788CE22401F218E23400F2216D
:011233008931
:011234002297
:0517FA00A20092902204
:091B6700300003C29122D2912248
:10191D0078841206EF75A0107887E2F58000C2B6C4
:10192D00D2B675A01118E2F58000C2B6D2B675A078
:10193D001218E2F58000C2B6D2B675A01318E2F502
:10194D008000C2B6D2B675A00175800100C2B6D2B4
:08195D00B675A0FF7580FF22A2
:1019650078841206EF75A0107887E2F58000C2B67C
:10197500D2B675A01118E2F58000C2B6D2B675A030
:101985001218E2F58000C2B6D2B675A01318E2F5BA
:101995008000C2B6D2B675A00175800400C2B6D269
:0819A500B675A0FF7580FF225A
:101B030075A0028F8000C2B6D2B675A0FF7580FFA4
:011B130022AF
:1019ED007884EEF208EFF275A010E2F58000C2B631
:1019FD00D2B675A01118E2F58000C2B6D2B675A0A8
:101A0D000175800200C2B6D2B675A0FF7580FF22A7
:101A1D007884EEF208EFF275A010E2F58000C2B600
:101A2D00D2B675A01118E2F58000C2B6D2B675A077
:101A3D000175800500C2B6D2B675A0FF7580FF2274
:101AF10075A0208F800000C2B6D2B675A0FF758098
:021B0100FF22C1
:101AB60075A021C2B700000000AF80D2B775A0FFA5
:031AC6007580FF29
:011AC90022FA
:0300000002149255
:0C149200787FE4F6D8FD7581210214D9A2
:10064A00BB010689828A83E0225002E722BBFE02AE
:09065A00E32289828A83E49322E1
:10066300EF8DF0A4A8F0CF8CF0A428CE8DF0A42EAB
:02067300FE2265
:10067500E88FF0A4CC8BF0A42CFCE98EF0A42CFC24
:100685008AF0EDA42CFCEA8EF0A4CDA8F08BF0A4A2
:100695002DCC3825F0FDE98FF0A42CCD35F0FCEB01
:1006A5008EF0A4FEA9F0EB8FF0A4CFC5F02ECD39C6
:0F06B500FEE43CFCEAA42DCE35F0FDE43CFC2233
:1006C400EB9FF5F0EA9E42F0E99D42F0E89C45F08C
:0106D4002203
:1006D500BB010789828A830207C75005E9F802072B
:0A06E500BBBBFE05E9F80206EF2298
:0C06EF00ECF208EDF208EEF208EFF22247
:1006FB00F5F0C582A4C582C5F0C583A42583F58317
:01070B0022CB
:0C070C00A42582F582E5F03583F58322F8
:10071800BB010789828A830207F55005E9F80207B9
:10072800ECBBFE05E9F80207FE89828A83020820ED
:10073800BB010DE58229F582E5833AF5830207F5C9
:100748005007E92582F80207ECBBFE07E92582F885
:100758000207FEE58229F582E5833AF5830208203F
:060768008A838982E4731C
:10002600E50824A7F8E205082278A430070278A795
:10003600E475F00112080702064A2000EB7F2ED273
:10004600008018EF540F2490D43440D4FF30040BB2
:10005600EF24BFB41A0050032461FFE509600215BE
:1000660009050CE50C7002050B30070D78A4E47544
:10007600F001120807EF02079B021B707403D207F8
:100086008003E4C207F50878A4120817E4F509F519
:100096000BF50CE50960077F2012006180F5750AF3
:1000A600FFC201C200C202C203C205C206C20812D2
:1000B600002FFF700D3007057F00120072AF0CAEE7
:1000C6000B22B4255FC2D5C20412002FFF24D0B480
:1000D6000A00501A75F00A780930D50508B6FF01EE
:1000E60006C6A426F620D5047002D20380D924CFF2
:1000F600B41A00EF5004C2E5D204020271D20180A4
:10010600C6D20080C0D20280BCD2D580BAD20580C9
:10011600B47F201200612002077401B5090040F186
:10012600120026FF120061020099D208D2068095BD
:10013600120026FB120026FA120026F94A4B700618
:1001460079427A037BFF20022EE509602A7E008E23
:100156008275830012076E60060EEE650A70F0C2A5
:10016600D5EBC0E0EAC0E0E9C0E0EE1202B8D0E0AC
:10017600F9D0E0FAD0E0FB12064AFF60AAEBC0E035
:10018600EAC0E0E9C0E0120061D0E02401F9D0E065
:100196003400FAD0E0FBE50A0460DCD50AD9808792
:1001A6007BFF7A0279B4D202809C791080027908AA
:1001B600C206C2088008D2D5790A8004790AC2D557
:1001C600E50A047002F50AE4FAFDFEFF120026FCB9
:1001D6007B08200113120026FD7B1030000A120056
:1001E60026FE120026FF7B20EC3382D592D55013D3
:1001F600C3E43000069FFFE49EFEE42001039DFD5C
:10020600E49CFCE4CBF8C201EC700CCFCECDCCE87C
:1002160024F8F870F38017C3EF33FFEE33FEED33A7
:10022600FDEC33FCEB33FB994002FB0FD8E9EB30D6
:100236000105F8D0E0C448B201C0E00AEC4D4E4FCB
:1002460078207B0070C2EAB50A0040BCC0E012020A
:10025600BAD0F0D0E0200104C4C0E0C4B201C0F0BE
:1002660012004AD0F0D5F0EB02009912087B013655
:100276005301B05801074C01034201B44F01BC447D
:1002860001BC49011C4301C25501A64601A6450110
:01029600A6C1
:1002970047036250010B2D010F2E01322B0113234F
:1002A700013020034B2A00CB480000012A3F3F3F83
:1002B70000790AA2D5200314300509B910020404F5
:1002C700B9080104A2D52006025001042002689251
:1002D70002B509005034C0E07F203003197F30A2F7
:1002E7000272067205500F120311C202C206C2053E
:1002F700C2087F30800F300503E9C0E0120061308B
:100307000503D0E0F9D0E0B509CC3005177F30B947
:10031700100C1200617F583004077F788003B908FA
:10032700031200613002057F2D0200617F20200843
:10033700F87F2B2006F322920280CF286E756C6C13
:100347002900D2011200263001F8C201780930D500
:100357000108F60200CB2D5043495812002624030A
:10036700B405004001E490035D93120052743A1201
:0A0377000052D2037509040201B020
:0F1B3400EFC394304007EF943A50028001C32270
:0F1B4300EFC394204007EF947F50028001C3222C
:101713007895EBF208EAF208E9F27898E2FB08E23E
:10172300FA08E2F912064AFE7895E2FB08E2FA08A3
:10173300E2F912064AFF6E702EEF6010789B08E202
:1017430024FFFDF218E234FFF24D70037F0022788C
:1017530097E22401F218E23400F2789AE22401F2CB
:1017630018E23400F280B37895E2FB08E2FA08E26B
:10177300F912064AFFD3EE6480F8EF6480984003C1
:061783007F01227FFF221E
:101A7900E4FFFE12064A600C0FEF70010E09E970CF
:051A8900F20A80EF22CB
:100E4000788DEBF208EAF208E9F2788DE2FB08E22D
:100E5000FA08E24A4B70137888E2F908E2FA08E2ED
:100E6000788DC9F208EAF208E9F2788DE2FB08E22F
:100E7000FA08E24A4B7004FBFAF9227890E2F9088A
:100E8000E2FA08E27896C9F208EAF208E9F2788D07
:100E9000E2FB08E2FA08E2F912161F788FE22FF25D
:100EA00018E23EF218E2FB08E2FA08E2F912064AFA
:100EB0007011F97888C9F208F208E9F27B007A002B
:100EC0007900227890E2F908E2FA08E27896C9F20D
:100ED00008EAF208E9F2788DE2FB08E2FA08E2F9A2
:100EE0001215A27888EBF208EAF208E9F24A4B60A0
:100EF000177888E2FB08E2FA08E2F9E412079BE2BD
:100F00002401F218E23400F2788DE2FB08E2FA08DC
:030F1000E2F922E1
:1008B30078A4EBF208EAF208E9F278AD1207D30064
:1008C300000000E478ABF208F278A7E2FB08E2FA52
:1008D30008E2F9EA494B601F78A4E2FB08E2FA0850
:1008E300E2F9EBC0E0EAC0E0E9C0E008E2FB08E2BD
:1008F300FA08E2F912082C78A4E2FB0808E2F924CA
:1009030001F218E2FA3400F212064A78B1F2E2FF79
:10091300C394094006EFD3940D40DCEF642060D705
:10092300EFB42D0B78ABE2F208E24403F2801C78BB
:10093300B1E2B42B0B78ABE2F208E24401F2800B94
:1009430078A6E224FFF218E234FFF278AAE2600408
:100953006410704D78A4E2FB08E2FA08E2F912068B
:100963004A6430600A78AAE27037740AF2803290DF
:10097300000112076EFF64786004EFB4581B78AB74
:10098300E2F208E24401F278AA7410F278A6E224B3
:1009930002F218E23400F2800878AAE270037408C5
:1009A300F278A4E2FB0808E2F92401F218E2FA342F
:1009B30000F212064A78B1F2E2FFC39461400AEFF3
:1009C300D3947A5004EF54DFF278B1E224D0F2E208
:1009D300FFC3940A400EEF94115003020A7F78B1CB
:1009E300E224F9F278AAE2FB78B1E2D39B40030256
:1009F3000A7F78ABE2F208E24401F208E2FC08E283
:100A0300FD08E2FE08E2FF78B21206EFEBFF7E007C
:100A1300E4FCFD78ADE2FB08E2F908E2FA08E2CB78
:100A2300F8120675ECC0E0C9EDC9CAEECACBEFCB2C
:100A330078B1E2FFE4FCFDFED0E0F8EB2FFFEE3AE5
:100A4300FEED39FDEC38FC78AD1206EF78ADE2FC33
:100A530008E2FD08E2FE08E2FF78B2E2FB08E2F9F1
:100A630008E2FA08E2CBF8D31206C450030209A441
:100A730078ABE2F208E24404F20209A478ACE22083
:100A8300E003E4804078A7E2FB08E2FA08E2F9EA2F
:100A9300494B602578A4E2FB08E2FA08E224FFF957
:100AA300EA34FFFAEBC0E0EAC0E0E9C0E008E2FBA9
:100AB30008E2FA08E2F912082C78ABE2FA08E2FB42
:100AC30030E20774FFFFFEFDFC22EB78AD30E10E50
:100AD300E2FC08E2FD08E2FE08E2FF0207ADE2FCE9
:0A0AE30008E2FD08E2FE08E2FF222F
:100F1300789EEBF208EAF208E9F2789EE2FB08E237
:100F2300FA08E2F912064AFF121ACA500D78A0E233
:100F33002401F218E23400F280E0D200789EE2FB52
:100F430008E2FA08E2F912064AFF642B6004EFB4E0
:100F53002D1E789EE2FB0808E2F92401F218E2FA5A
:100F63003400F212064A642D6003D38001C3920059
:100F7300E478A1F208F2789EE2FB08E2FA08E2F9CB
:100F830012064AFF121B34503C789EE2FB08E2FA39
:100F930008E2F912064AFF3395E0FEEF24D0FBEE98
:100FA30034FFFA08E2FE08E2FF7C007D0A120663C2
:100FB300EF2B78A2F2EE3A18F218E22401F218E2CB
:100FC3003400F280B130000978A1E2FE08E2FF802C
:100FD3000E78A1E2FE08E2FFC3E49FFFE49EFE2237
:10149E0002169BE493A3F8E493A34003F68001F2B3
:1014AE0008DFF48029E493A3F85407240CC8C3334F
:1014BE00C4540F4420C8834004F456800146F6DF1E
:1014CE00E4800B0102040810204080901B52E47E41
:1014DE00019360BCA3FF543F30E509541FFEE49313
:1014EE00A360010ECF54C025E060A840B8E493A3DA
:1014FE00FAE493A3F8E493A3C8C582C8CAC583CA05
:10150E00F0A3C8C582C8CAC583CADFE9DEE780BEBC
:011B5D000087
:10076E00BB010CE58229F582E5833AF583E0225040
:10077E0006E92582F8E622BBFE06E92582F8E2228A
:0D078E00E58229F582E5833AF583E49322A4
:10079B00BB010689828A83F0225002F722BBFE013D
:0207AB00F32237
:0E07AD00C3E49FFFE49EFEE49DFDE49CFC225D
:0C07BB00ECF608EDF608EEF608EFF6226A
:0C07C700ECF0A3EDF0A3EEF0A3EFF022A5
:1007D300D083D082E493F208740193F208740293F5
:0907E300F208740393F27404732C
:0907EC00E6FB08E6FA08E6F92232
:0907F500E0FBA3E0FAA3E0F92205
:0907FE00E2FB08E2FA08E2F9222C
:10080700FAE2FB0808E2F925F0F218E2CA3AF22206
:09081700EBF208EAF208E9F22212
:0C082000E493FB740193FA740293F92234
:10082C00BB011A89828A83D0F0D0E0F8D0E0F9D0ED
:10083C00E0FAD0E0FBE8C0E0C0F00208AA5016E9EC
:10084C00F8D083D082D0E0F9D0E0FAD0E0FBC082BF
:10085C00C0830208A1BBFE16E9F8D083D082D0E099
:0F086C00F9D0E0FAD0E0FBC082C0830208172267
:10087B00D083D082F8E4937012740193700DA3A30C
:10088B0093F8740193F5828883E473740293686020
:06089B00EFA3A3A380DF20
:101ACA00EFC394094005EF940E4004EFB42003D30A
:041ADA008001C322A2
:10161F007893EBF208EAF208E9F2E47899F208F22B
:10162F00E4FEFF7896E2FB08E2FA08E2F98F828E79
:10163F008312076EFD60177893E2FB08E2FA08E267
:10164F00F912064A6D60070FBF00010E80D578961C
:10165F00E2FB08E2FA08E2F98F828E8312076E70BE
:10166F00028021789AE22401F218E23400F2789392
:10167F00E2FB0808E22401F9F218E23400FAF21250
:0C168F00064A709C7899E2FE08E2FF22F7
:1015A2007893EBF208EAF208E9F27896E2F908E2B7
:1015B200FA08E208C9F208EAF208E9F27899E2FBCD
:1015C20008E2FA08E2F912064AFF601D7893E2FB8C
:1015D20008E2FA08E2F912064A6F600D789BE224EB
:1015E20001F218E23400F280D37899E2FB08E2FAC1
:1015F20008E2F912064A600B7893E2FB08E2FA0865
:10160200E2F9227893E2FB0808E2F92401F218E2F7
:0D161200FA3400F212064A7091FBFAF92238
:0908A100EBF608EAF608E9F6227C
:0908AA00EBF0A3EAF0A3E9F0224F
:00000001FF
